{
	"Exam.sol": {
		"MultiExamSystem": {
			"abi": [
				{
					"inputs": [
						{
							"internalType": "string",
							"name": "_code",
							"type": "string"
						},
						{
							"internalType": "uint256",
							"name": "_studentId",
							"type": "uint256"
						},
						{
							"internalType": "string",
							"name": "_name",
							"type": "string"
						},
						{
							"internalType": "uint256",
							"name": "_marks",
							"type": "uint256"
						}
					],
					"name": "addResult",
					"outputs": [],
					"stateMutability": "nonpayable",
					"type": "function"
				},
				{
					"inputs": [
						{
							"internalType": "string",
							"name": "_code",
							"type": "string"
						},
						{
							"internalType": "string",
							"name": "_json",
							"type": "string"
						},
						{
							"internalType": "uint256",
							"name": "_duration",
							"type": "uint256"
						}
					],
					"name": "createExam",
					"outputs": [],
					"stateMutability": "nonpayable",
					"type": "function"
				},
				{
					"inputs": [
						{
							"internalType": "string",
							"name": "_code",
							"type": "string"
						}
					],
					"name": "getExam",
					"outputs": [
						{
							"internalType": "string",
							"name": "",
							"type": "string"
						},
						{
							"internalType": "uint256",
							"name": "",
							"type": "uint256"
						}
					],
					"stateMutability": "view",
					"type": "function"
				},
				{
					"inputs": [
						{
							"internalType": "string",
							"name": "_code",
							"type": "string"
						},
						{
							"internalType": "uint256",
							"name": "_studentId",
							"type": "uint256"
						}
					],
					"name": "getResult",
					"outputs": [
						{
							"internalType": "string",
							"name": "",
							"type": "string"
						},
						{
							"internalType": "uint256",
							"name": "",
							"type": "uint256"
						}
					],
					"stateMutability": "view",
					"type": "function"
				}
			],
			"devdoc": {
				"kind": "dev",
				"methods": {},
				"version": 1
			},
			"evm": {
				"assembly": "    /* \"Exam.sol\":60:1567  contract MultiExamSystem {... */\n  mstore(0x40, 0x80)\n  callvalue\n  dup1\n  iszero\n  tag_1\n  jumpi\n  0x00\n  dup1\n  revert\ntag_1:\n  pop\n  dataSize(sub_0)\n  dup1\n  dataOffset(sub_0)\n  0x00\n  codecopy\n  0x00\n  return\nstop\n\nsub_0: assembly {\n        /* \"Exam.sol\":60:1567  contract MultiExamSystem {... */\n      mstore(0x40, 0x80)\n      callvalue\n      dup1\n      iszero\n      tag_1\n      jumpi\n      0x00\n      dup1\n      revert\n    tag_1:\n      pop\n      jumpi(tag_2, lt(calldatasize, 0x04))\n      shr(0xe0, calldataload(0x00))\n      dup1\n      0x03803e41\n      eq\n      tag_3\n      jumpi\n      dup1\n      0x61afcc7b\n      eq\n      tag_4\n      jumpi\n      dup1\n      0x7d60fd39\n      eq\n      tag_5\n      jumpi\n      dup1\n      0xb6540b64\n      eq\n      tag_6\n      jumpi\n    tag_2:\n      0x00\n      dup1\n      revert\n        /* \"Exam.sol\":1071:1257  function addResult(string memory _code, uint256 _studentId, string memory _name, uint256 _marks) public {... */\n    tag_3:\n      tag_7\n      0x04\n      dup1\n      calldatasize\n      sub\n      dup2\n      add\n      swap1\n      tag_8\n      swap2\n      swap1\n      tag_9\n      jump\t// in\n    tag_8:\n      tag_10\n      jump\t// in\n    tag_7:\n      stop\n        /* \"Exam.sol\":845:1005  function getExam(string memory _code) public view returns (string memory, uint256) {... */\n    tag_4:\n      tag_11\n      0x04\n      dup1\n      calldatasize\n      sub\n      dup2\n      add\n      swap1\n      tag_12\n      swap2\n      swap1\n      tag_13\n      jump\t// in\n    tag_12:\n      tag_14\n      jump\t// in\n    tag_11:\n      mload(0x40)\n      tag_15\n      swap3\n      swap2\n      swap1\n      tag_16\n      jump\t// in\n    tag_15:\n      mload(0x40)\n      dup1\n      swap2\n      sub\n      swap1\n      return\n        /* \"Exam.sol\":1293:1564  function getResult(string memory _code, uint256 _studentId) public view returns (string memory, uint256) {... */\n    tag_5:\n      tag_17\n      0x04\n      dup1\n      calldatasize\n      sub\n      dup2\n      add\n      swap1\n      tag_18\n      swap2\n      swap1\n      tag_19\n      jump\t// in\n    tag_18:\n      tag_20\n      jump\t// in\n    tag_17:\n      mload(0x40)\n      tag_21\n      swap3\n      swap2\n      swap1\n      tag_16\n      jump\t// in\n    tag_21:\n      mload(0x40)\n      dup1\n      swap2\n      sub\n      swap1\n      return\n        /* \"Exam.sol\":615:774  function createExam(string memory _code, string memory _json, uint256 _duration) public {... */\n    tag_6:\n      tag_22\n      0x04\n      dup1\n      calldatasize\n      sub\n      dup2\n      add\n      swap1\n      tag_23\n      swap2\n      swap1\n      tag_24\n      jump\t// in\n    tag_23:\n      tag_25\n      jump\t// in\n    tag_22:\n      stop\n        /* \"Exam.sol\":1071:1257  function addResult(string memory _code, uint256 _studentId, string memory _name, uint256 _marks) public {... */\n    tag_10:\n        /* \"Exam.sol\":1215:1249  StudentResult(_name, _marks, true) */\n      mload(0x40)\n      dup1\n      0x60\n      add\n      0x40\n      mstore\n      dup1\n        /* \"Exam.sol\":1229:1234  _name */\n      dup4\n        /* \"Exam.sol\":1215:1249  StudentResult(_name, _marks, true) */\n      dup2\n      mstore\n      0x20\n      add\n        /* \"Exam.sol\":1236:1242  _marks */\n      dup3\n        /* \"Exam.sol\":1215:1249  StudentResult(_name, _marks, true) */\n      dup2\n      mstore\n      0x20\n      add\n        /* \"Exam.sol\":1244:1248  true */\n      0x01\n        /* \"Exam.sol\":1215:1249  StudentResult(_name, _marks, true) */\n      iszero\n      iszero\n      dup2\n      mstore\n      pop\n        /* \"Exam.sol\":1186:1193  results */\n      0x01\n        /* \"Exam.sol\":1194:1199  _code */\n      dup6\n        /* \"Exam.sol\":1186:1200  results[_code] */\n      mload(0x40)\n      tag_27\n      swap2\n      swap1\n      tag_28\n      jump\t// in\n    tag_27:\n      swap1\n      dup2\n      mstore\n      0x20\n      add\n      mload(0x40)\n      dup1\n      swap2\n      sub\n      swap1\n      keccak256\n        /* \"Exam.sol\":1186:1212  results[_code][_studentId] */\n      0x00\n        /* \"Exam.sol\":1201:1211  _studentId */\n      dup6\n        /* \"Exam.sol\":1186:1212  results[_code][_studentId] */\n      dup2\n      mstore\n      0x20\n      add\n      swap1\n      dup2\n      mstore\n      0x20\n      add\n      0x00\n      keccak256\n        /* \"Exam.sol\":1186:1249  results[_code][_studentId] = StudentResult(_name, _marks, true) */\n      0x00\n      dup3\n      add\n      mload\n      dup2\n      0x00\n      add\n      swap1\n      dup2\n      tag_29\n      swap2\n      swap1\n      tag_30\n      jump\t// in\n    tag_29:\n      pop\n      0x20\n      dup3\n      add\n      mload\n      dup2\n      0x01\n      add\n      sstore\n      0x40\n      dup3\n      add\n      mload\n      dup2\n      0x02\n      add\n      exp(0x0100, 0x00)\n      dup2\n      sload\n      dup2\n      0xff\n      mul\n      not\n      and\n      swap1\n      dup4\n      iszero\n      iszero\n      mul\n      or\n      swap1\n      sstore\n      pop\n      swap1\n      pop\n      pop\n        /* \"Exam.sol\":1071:1257  function addResult(string memory _code, uint256 _studentId, string memory _name, uint256 _marks) public {... */\n      pop\n      pop\n      pop\n      pop\n      jump\t// out\n        /* \"Exam.sol\":845:1005  function getExam(string memory _code) public view returns (string memory, uint256) {... */\n    tag_14:\n        /* \"Exam.sol\":904:917  string memory */\n      0x60\n        /* \"Exam.sol\":919:926  uint256 */\n      0x00\n        /* \"Exam.sol\":947:952  exams */\n      dup1\n        /* \"Exam.sol\":953:958  _code */\n      dup4\n        /* \"Exam.sol\":947:959  exams[_code] */\n      mload(0x40)\n      tag_32\n      swap2\n      swap1\n      tag_28\n      jump\t// in\n    tag_32:\n      swap1\n      dup2\n      mstore\n      0x20\n      add\n      mload(0x40)\n      dup1\n      swap2\n      sub\n      swap1\n      keccak256\n        /* \"Exam.sol\":947:973  exams[_code].questionsJson */\n      0x00\n      add\n        /* \"Exam.sol\":975:980  exams */\n      0x00\n        /* \"Exam.sol\":981:986  _code */\n      dup5\n        /* \"Exam.sol\":975:987  exams[_code] */\n      mload(0x40)\n      tag_33\n      swap2\n      swap1\n      tag_28\n      jump\t// in\n    tag_33:\n      swap1\n      dup2\n      mstore\n      0x20\n      add\n      mload(0x40)\n      dup1\n      swap2\n      sub\n      swap1\n      keccak256\n        /* \"Exam.sol\":975:996  exams[_code].duration */\n      0x01\n      add\n      sload\n        /* \"Exam.sol\":939:997  return (exams[_code].questionsJson, exams[_code].duration) */\n      dup2\n      dup1\n      sload\n      tag_34\n      swap1\n      tag_35\n      jump\t// in\n    tag_34:\n      dup1\n      0x1f\n      add\n      0x20\n      dup1\n      swap2\n      div\n      mul\n      0x20\n      add\n      mload(0x40)\n      swap1\n      dup2\n      add\n      0x40\n      mstore\n      dup1\n      swap3\n      swap2\n      swap1\n      dup2\n      dup2\n      mstore\n      0x20\n      add\n      dup3\n      dup1\n      sload\n      tag_36\n      swap1\n      tag_35\n      jump\t// in\n    tag_36:\n      dup1\n      iszero\n      tag_37\n      jumpi\n      dup1\n      0x1f\n      lt\n      tag_38\n      jumpi\n      0x0100\n      dup1\n      dup4\n      sload\n      div\n      mul\n      dup4\n      mstore\n      swap2\n      0x20\n      add\n      swap2\n      jump(tag_37)\n    tag_38:\n      dup3\n      add\n      swap2\n      swap1\n      0x00\n      mstore\n      keccak256(0x00, 0x20)\n      swap1\n    tag_39:\n      dup2\n      sload\n      dup2\n      mstore\n      swap1\n      0x01\n      add\n      swap1\n      0x20\n      add\n      dup1\n      dup4\n      gt\n      tag_39\n      jumpi\n      dup3\n      swap1\n      sub\n      0x1f\n      and\n      dup3\n      add\n      swap2\n    tag_37:\n      pop\n      pop\n      pop\n      pop\n      pop\n      swap2\n      pop\n      swap2\n      pop\n      swap2\n      pop\n        /* \"Exam.sol\":845:1005  function getExam(string memory _code) public view returns (string memory, uint256) {... */\n      swap2\n      pop\n      swap2\n      jump\t// out\n        /* \"Exam.sol\":1293:1564  function getResult(string memory _code, uint256 _studentId) public view returns (string memory, uint256) {... */\n    tag_20:\n        /* \"Exam.sol\":1374:1387  string memory */\n      0x60\n        /* \"Exam.sol\":1389:1396  uint256 */\n      0x00\n        /* \"Exam.sol\":1417:1424  results */\n      0x01\n        /* \"Exam.sol\":1425:1430  _code */\n      dup5\n        /* \"Exam.sol\":1417:1431  results[_code] */\n      mload(0x40)\n      tag_41\n      swap2\n      swap1\n      tag_28\n      jump\t// in\n    tag_41:\n      swap1\n      dup2\n      mstore\n      0x20\n      add\n      mload(0x40)\n      dup1\n      swap2\n      sub\n      swap1\n      keccak256\n        /* \"Exam.sol\":1417:1443  results[_code][_studentId] */\n      0x00\n        /* \"Exam.sol\":1432:1442  _studentId */\n      dup5\n        /* \"Exam.sol\":1417:1443  results[_code][_studentId] */\n      dup2\n      mstore\n      0x20\n      add\n      swap1\n      dup2\n      mstore\n      0x20\n      add\n      0x00\n      keccak256\n        /* \"Exam.sol\":1417:1450  results[_code][_studentId].exists */\n      0x02\n      add\n      0x00\n      swap1\n      sload\n      swap1\n      0x0100\n      exp\n      swap1\n      div\n      0xff\n      and\n        /* \"Exam.sol\":1409:1471  require(results[_code][_studentId].exists, \"Result not found\") */\n      tag_42\n      jumpi\n      mload(0x40)\n      0x08c379a000000000000000000000000000000000000000000000000000000000\n      dup2\n      mstore\n      0x04\n      add\n      tag_43\n      swap1\n      tag_44\n      jump\t// in\n    tag_43:\n      mload(0x40)\n      dup1\n      swap2\n      sub\n      swap1\n      revert\n    tag_42:\n        /* \"Exam.sol\":1490:1497  results */\n      0x01\n        /* \"Exam.sol\":1498:1503  _code */\n      dup5\n        /* \"Exam.sol\":1490:1504  results[_code] */\n      mload(0x40)\n      tag_45\n      swap2\n      swap1\n      tag_28\n      jump\t// in\n    tag_45:\n      swap1\n      dup2\n      mstore\n      0x20\n      add\n      mload(0x40)\n      dup1\n      swap2\n      sub\n      swap1\n      keccak256\n        /* \"Exam.sol\":1490:1516  results[_code][_studentId] */\n      0x00\n        /* \"Exam.sol\":1505:1515  _studentId */\n      dup5\n        /* \"Exam.sol\":1490:1516  results[_code][_studentId] */\n      dup2\n      mstore\n      0x20\n      add\n      swap1\n      dup2\n      mstore\n      0x20\n      add\n      0x00\n      keccak256\n        /* \"Exam.sol\":1490:1521  results[_code][_studentId].name */\n      0x00\n      add\n        /* \"Exam.sol\":1523:1530  results */\n      0x01\n        /* \"Exam.sol\":1531:1536  _code */\n      dup6\n        /* \"Exam.sol\":1523:1537  results[_code] */\n      mload(0x40)\n      tag_46\n      swap2\n      swap1\n      tag_28\n      jump\t// in\n    tag_46:\n      swap1\n      dup2\n      mstore\n      0x20\n      add\n      mload(0x40)\n      dup1\n      swap2\n      sub\n      swap1\n      keccak256\n        /* \"Exam.sol\":1523:1549  results[_code][_studentId] */\n      0x00\n        /* \"Exam.sol\":1538:1548  _studentId */\n      dup6\n        /* \"Exam.sol\":1523:1549  results[_code][_studentId] */\n      dup2\n      mstore\n      0x20\n      add\n      swap1\n      dup2\n      mstore\n      0x20\n      add\n      0x00\n      keccak256\n        /* \"Exam.sol\":1523:1555  results[_code][_studentId].marks */\n      0x01\n      add\n      sload\n        /* \"Exam.sol\":1482:1556  return (results[_code][_studentId].name, results[_code][_studentId].marks) */\n      dup2\n      dup1\n      sload\n      tag_47\n      swap1\n      tag_35\n      jump\t// in\n    tag_47:\n      dup1\n      0x1f\n      add\n      0x20\n      dup1\n      swap2\n      div\n      mul\n      0x20\n      add\n      mload(0x40)\n      swap1\n      dup2\n      add\n      0x40\n      mstore\n      dup1\n      swap3\n      swap2\n      swap1\n      dup2\n      dup2\n      mstore\n      0x20\n      add\n      dup3\n      dup1\n      sload\n      tag_48\n      swap1\n      tag_35\n      jump\t// in\n    tag_48:\n      dup1\n      iszero\n      tag_49\n      jumpi\n      dup1\n      0x1f\n      lt\n      tag_50\n      jumpi\n      0x0100\n      dup1\n      dup4\n      sload\n      div\n      mul\n      dup4\n      mstore\n      swap2\n      0x20\n      add\n      swap2\n      jump(tag_49)\n    tag_50:\n      dup3\n      add\n      swap2\n      swap1\n      0x00\n      mstore\n      keccak256(0x00, 0x20)\n      swap1\n    tag_51:\n      dup2\n      sload\n      dup2\n      mstore\n      swap1\n      0x01\n      add\n      swap1\n      0x20\n      add\n      dup1\n      dup4\n      gt\n      tag_51\n      jumpi\n      dup3\n      swap1\n      sub\n      0x1f\n      and\n      dup3\n      add\n      swap2\n    tag_49:\n      pop\n      pop\n      pop\n      pop\n      pop\n      swap2\n      pop\n      swap2\n      pop\n      swap2\n      pop\n        /* \"Exam.sol\":1293:1564  function getResult(string memory _code, uint256 _studentId) public view returns (string memory, uint256) {... */\n      swap3\n      pop\n      swap3\n      swap1\n      pop\n      jump\t// out\n        /* \"Exam.sol\":615:774  function createExam(string memory _code, string memory _json, uint256 _duration) public {... */\n    tag_25:\n        /* \"Exam.sol\":729:766  ExamSet(_json, _duration, msg.sender) */\n      mload(0x40)\n      dup1\n      0x60\n      add\n      0x40\n      mstore\n      dup1\n        /* \"Exam.sol\":737:742  _json */\n      dup4\n        /* \"Exam.sol\":729:766  ExamSet(_json, _duration, msg.sender) */\n      dup2\n      mstore\n      0x20\n      add\n        /* \"Exam.sol\":744:753  _duration */\n      dup3\n        /* \"Exam.sol\":729:766  ExamSet(_json, _duration, msg.sender) */\n      dup2\n      mstore\n      0x20\n      add\n        /* \"Exam.sol\":755:765  msg.sender */\n      caller\n        /* \"Exam.sol\":729:766  ExamSet(_json, _duration, msg.sender) */\n      0xffffffffffffffffffffffffffffffffffffffff\n      and\n      dup2\n      mstore\n      pop\n        /* \"Exam.sol\":714:719  exams */\n      0x00\n        /* \"Exam.sol\":720:725  _code */\n      dup5\n        /* \"Exam.sol\":714:726  exams[_code] */\n      mload(0x40)\n      tag_53\n      swap2\n      swap1\n      tag_28\n      jump\t// in\n    tag_53:\n      swap1\n      dup2\n      mstore\n      0x20\n      add\n      mload(0x40)\n      dup1\n      swap2\n      sub\n      swap1\n      keccak256\n        /* \"Exam.sol\":714:766  exams[_code] = ExamSet(_json, _duration, msg.sender) */\n      0x00\n      dup3\n      add\n      mload\n      dup2\n      0x00\n      add\n      swap1\n      dup2\n      tag_54\n      swap2\n      swap1\n      tag_30\n      jump\t// in\n    tag_54:\n      pop\n      0x20\n      dup3\n      add\n      mload\n      dup2\n      0x01\n      add\n      sstore\n      0x40\n      dup3\n      add\n      mload\n      dup2\n      0x02\n      add\n      exp(0x0100, 0x00)\n      dup2\n      sload\n      dup2\n      0xffffffffffffffffffffffffffffffffffffffff\n      mul\n      not\n      and\n      swap1\n      dup4\n      0xffffffffffffffffffffffffffffffffffffffff\n      and\n      mul\n      or\n      swap1\n      sstore\n      pop\n      swap1\n      pop\n      pop\n        /* \"Exam.sol\":615:774  function createExam(string memory _code, string memory _json, uint256 _duration) public {... */\n      pop\n      pop\n      pop\n      jump\t// out\n        /* \"#utility.yul\":7:82   */\n    tag_55:\n        /* \"#utility.yul\":40:46   */\n      0x00\n        /* \"#utility.yul\":73:75   */\n      0x40\n        /* \"#utility.yul\":67:76   */\n      mload\n        /* \"#utility.yul\":57:76   */\n      swap1\n      pop\n        /* \"#utility.yul\":7:82   */\n      swap1\n      jump\t// out\n        /* \"#utility.yul\":88:205   */\n    tag_56:\n        /* \"#utility.yul\":197:198   */\n      0x00\n        /* \"#utility.yul\":194:195   */\n      dup1\n        /* \"#utility.yul\":187:199   */\n      revert\n        /* \"#utility.yul\":211:328   */\n    tag_57:\n        /* \"#utility.yul\":320:321   */\n      0x00\n        /* \"#utility.yul\":317:318   */\n      dup1\n        /* \"#utility.yul\":310:322   */\n      revert\n        /* \"#utility.yul\":334:451   */\n    tag_58:\n        /* \"#utility.yul\":443:444   */\n      0x00\n        /* \"#utility.yul\":440:441   */\n      dup1\n        /* \"#utility.yul\":433:445   */\n      revert\n        /* \"#utility.yul\":457:574   */\n    tag_59:\n        /* \"#utility.yul\":566:567   */\n      0x00\n        /* \"#utility.yul\":563:564   */\n      dup1\n        /* \"#utility.yul\":556:568   */\n      revert\n        /* \"#utility.yul\":580:682   */\n    tag_60:\n        /* \"#utility.yul\":621:627   */\n      0x00\n        /* \"#utility.yul\":672:674   */\n      0x1f\n        /* \"#utility.yul\":668:675   */\n      not\n        /* \"#utility.yul\":663:665   */\n      0x1f\n        /* \"#utility.yul\":656:661   */\n      dup4\n        /* \"#utility.yul\":652:666   */\n      add\n        /* \"#utility.yul\":648:676   */\n      and\n        /* \"#utility.yul\":638:676   */\n      swap1\n      pop\n        /* \"#utility.yul\":580:682   */\n      swap2\n      swap1\n      pop\n      jump\t// out\n        /* \"#utility.yul\":688:868   */\n    tag_61:\n        /* \"#utility.yul\":736:813   */\n      0x4e487b7100000000000000000000000000000000000000000000000000000000\n        /* \"#utility.yul\":733:734   */\n      0x00\n        /* \"#utility.yul\":726:814   */\n      mstore\n        /* \"#utility.yul\":833:837   */\n      0x41\n        /* \"#utility.yul\":830:831   */\n      0x04\n        /* \"#utility.yul\":823:838   */\n      mstore\n        /* \"#utility.yul\":857:861   */\n      0x24\n        /* \"#utility.yul\":854:855   */\n      0x00\n        /* \"#utility.yul\":847:862   */\n      revert\n        /* \"#utility.yul\":874:1155   */\n    tag_62:\n        /* \"#utility.yul\":957:984   */\n      tag_105\n        /* \"#utility.yul\":979:983   */\n      dup3\n        /* \"#utility.yul\":957:984   */\n      tag_60\n      jump\t// in\n    tag_105:\n        /* \"#utility.yul\":949:955   */\n      dup2\n        /* \"#utility.yul\":945:985   */\n      add\n        /* \"#utility.yul\":1087:1093   */\n      dup2\n        /* \"#utility.yul\":1075:1085   */\n      dup2\n        /* \"#utility.yul\":1072:1094   */\n      lt\n        /* \"#utility.yul\":1051:1069   */\n      0xffffffffffffffff\n        /* \"#utility.yul\":1039:1049   */\n      dup3\n        /* \"#utility.yul\":1036:1070   */\n      gt\n        /* \"#utility.yul\":1033:1095   */\n      or\n        /* \"#utility.yul\":1030:1118   */\n      iszero\n      tag_106\n      jumpi\n        /* \"#utility.yul\":1098:1116   */\n      tag_107\n      tag_61\n      jump\t// in\n    tag_107:\n        /* \"#utility.yul\":1030:1118   */\n    tag_106:\n        /* \"#utility.yul\":1138:1148   */\n      dup1\n        /* \"#utility.yul\":1134:1136   */\n      0x40\n        /* \"#utility.yul\":1127:1149   */\n      mstore\n        /* \"#utility.yul\":917:1155   */\n      pop\n        /* \"#utility.yul\":874:1155   */\n      pop\n      pop\n      jump\t// out\n        /* \"#utility.yul\":1161:1290   */\n    tag_63:\n        /* \"#utility.yul\":1195:1201   */\n      0x00\n        /* \"#utility.yul\":1222:1242   */\n      tag_109\n      tag_55\n      jump\t// in\n    tag_109:\n        /* \"#utility.yul\":1212:1242   */\n      swap1\n      pop\n        /* \"#utility.yul\":1251:1284   */\n      tag_110\n        /* \"#utility.yul\":1279:1283   */\n      dup3\n        /* \"#utility.yul\":1271:1277   */\n      dup3\n        /* \"#utility.yul\":1251:1284   */\n      tag_62\n      jump\t// in\n    tag_110:\n        /* \"#utility.yul\":1161:1290   */\n      swap2\n      swap1\n      pop\n      jump\t// out\n        /* \"#utility.yul\":1296:1604   */\n    tag_64:\n        /* \"#utility.yul\":1358:1362   */\n      0x00\n        /* \"#utility.yul\":1448:1466   */\n      0xffffffffffffffff\n        /* \"#utility.yul\":1440:1446   */\n      dup3\n        /* \"#utility.yul\":1437:1467   */\n      gt\n        /* \"#utility.yul\":1434:1490   */\n      iszero\n      tag_112\n      jumpi\n        /* \"#utility.yul\":1470:1488   */\n      tag_113\n      tag_61\n      jump\t// in\n    tag_113:\n        /* \"#utility.yul\":1434:1490   */\n    tag_112:\n        /* \"#utility.yul\":1508:1537   */\n      tag_114\n        /* \"#utility.yul\":1530:1536   */\n      dup3\n        /* \"#utility.yul\":1508:1537   */\n      tag_60\n      jump\t// in\n    tag_114:\n        /* \"#utility.yul\":1500:1537   */\n      swap1\n      pop\n        /* \"#utility.yul\":1592:1596   */\n      0x20\n        /* \"#utility.yul\":1586:1590   */\n      dup2\n        /* \"#utility.yul\":1582:1597   */\n      add\n        /* \"#utility.yul\":1574:1597   */\n      swap1\n      pop\n        /* \"#utility.yul\":1296:1604   */\n      swap2\n      swap1\n      pop\n      jump\t// out\n        /* \"#utility.yul\":1610:1758   */\n    tag_65:\n        /* \"#utility.yul\":1708:1714   */\n      dup3\n        /* \"#utility.yul\":1703:1706   */\n      dup2\n        /* \"#utility.yul\":1698:1701   */\n      dup4\n        /* \"#utility.yul\":1685:1715   */\n      calldatacopy\n        /* \"#utility.yul\":1749:1750   */\n      0x00\n        /* \"#utility.yul\":1740:1746   */\n      dup4\n        /* \"#utility.yul\":1735:1738   */\n      dup4\n        /* \"#utility.yul\":1731:1747   */\n      add\n        /* \"#utility.yul\":1724:1751   */\n      mstore\n        /* \"#utility.yul\":1610:1758   */\n      pop\n      pop\n      pop\n      jump\t// out\n        /* \"#utility.yul\":1764:2189   */\n    tag_66:\n        /* \"#utility.yul\":1842:1847   */\n      0x00\n        /* \"#utility.yul\":1867:1933   */\n      tag_117\n        /* \"#utility.yul\":1883:1932   */\n      tag_118\n        /* \"#utility.yul\":1925:1931   */\n      dup5\n        /* \"#utility.yul\":1883:1932   */\n      tag_64\n      jump\t// in\n    tag_118:\n        /* \"#utility.yul\":1867:1933   */\n      tag_63\n      jump\t// in\n    tag_117:\n        /* \"#utility.yul\":1858:1933   */\n      swap1\n      pop\n        /* \"#utility.yul\":1956:1962   */\n      dup3\n        /* \"#utility.yul\":1949:1954   */\n      dup2\n        /* \"#utility.yul\":1942:1963   */\n      mstore\n        /* \"#utility.yul\":1994:1998   */\n      0x20\n        /* \"#utility.yul\":1987:1992   */\n      dup2\n        /* \"#utility.yul\":1983:1999   */\n      add\n        /* \"#utility.yul\":2032:2035   */\n      dup5\n        /* \"#utility.yul\":2023:2029   */\n      dup5\n        /* \"#utility.yul\":2018:2021   */\n      dup5\n        /* \"#utility.yul\":2014:2030   */\n      add\n        /* \"#utility.yul\":2011:2036   */\n      gt\n        /* \"#utility.yul\":2008:2120   */\n      iszero\n      tag_119\n      jumpi\n        /* \"#utility.yul\":2039:2118   */\n      tag_120\n      tag_59\n      jump\t// in\n    tag_120:\n        /* \"#utility.yul\":2008:2120   */\n    tag_119:\n        /* \"#utility.yul\":2129:2183   */\n      tag_121\n        /* \"#utility.yul\":2176:2182   */\n      dup5\n        /* \"#utility.yul\":2171:2174   */\n      dup3\n        /* \"#utility.yul\":2166:2169   */\n      dup6\n        /* \"#utility.yul\":2129:2183   */\n      tag_65\n      jump\t// in\n    tag_121:\n        /* \"#utility.yul\":1848:2189   */\n      pop\n        /* \"#utility.yul\":1764:2189   */\n      swap4\n      swap3\n      pop\n      pop\n      pop\n      jump\t// out\n        /* \"#utility.yul\":2209:2549   */\n    tag_67:\n        /* \"#utility.yul\":2265:2270   */\n      0x00\n        /* \"#utility.yul\":2314:2317   */\n      dup3\n        /* \"#utility.yul\":2307:2311   */\n      0x1f\n        /* \"#utility.yul\":2299:2305   */\n      dup4\n        /* \"#utility.yul\":2295:2312   */\n      add\n        /* \"#utility.yul\":2291:2318   */\n      slt\n        /* \"#utility.yul\":2281:2403   */\n      tag_123\n      jumpi\n        /* \"#utility.yul\":2322:2401   */\n      tag_124\n      tag_58\n      jump\t// in\n    tag_124:\n        /* \"#utility.yul\":2281:2403   */\n    tag_123:\n        /* \"#utility.yul\":2439:2445   */\n      dup2\n        /* \"#utility.yul\":2426:2446   */\n      calldataload\n        /* \"#utility.yul\":2464:2543   */\n      tag_125\n        /* \"#utility.yul\":2539:2542   */\n      dup5\n        /* \"#utility.yul\":2531:2537   */\n      dup3\n        /* \"#utility.yul\":2524:2528   */\n      0x20\n        /* \"#utility.yul\":2516:2522   */\n      dup7\n        /* \"#utility.yul\":2512:2529   */\n      add\n        /* \"#utility.yul\":2464:2543   */\n      tag_66\n      jump\t// in\n    tag_125:\n        /* \"#utility.yul\":2455:2543   */\n      swap2\n      pop\n        /* \"#utility.yul\":2271:2549   */\n      pop\n        /* \"#utility.yul\":2209:2549   */\n      swap3\n      swap2\n      pop\n      pop\n      jump\t// out\n        /* \"#utility.yul\":2555:2632   */\n    tag_68:\n        /* \"#utility.yul\":2592:2599   */\n      0x00\n        /* \"#utility.yul\":2621:2626   */\n      dup2\n        /* \"#utility.yul\":2610:2626   */\n      swap1\n      pop\n        /* \"#utility.yul\":2555:2632   */\n      swap2\n      swap1\n      pop\n      jump\t// out\n        /* \"#utility.yul\":2638:2760   */\n    tag_69:\n        /* \"#utility.yul\":2711:2735   */\n      tag_128\n        /* \"#utility.yul\":2729:2734   */\n      dup2\n        /* \"#utility.yul\":2711:2735   */\n      tag_68\n      jump\t// in\n    tag_128:\n        /* \"#utility.yul\":2704:2709   */\n      dup2\n        /* \"#utility.yul\":2701:2736   */\n      eq\n        /* \"#utility.yul\":2691:2754   */\n      tag_129\n      jumpi\n        /* \"#utility.yul\":2750:2751   */\n      0x00\n        /* \"#utility.yul\":2747:2748   */\n      dup1\n        /* \"#utility.yul\":2740:2752   */\n      revert\n        /* \"#utility.yul\":2691:2754   */\n    tag_129:\n        /* \"#utility.yul\":2638:2760   */\n      pop\n      jump\t// out\n        /* \"#utility.yul\":2766:2905   */\n    tag_70:\n        /* \"#utility.yul\":2812:2817   */\n      0x00\n        /* \"#utility.yul\":2850:2856   */\n      dup2\n        /* \"#utility.yul\":2837:2857   */\n      calldataload\n        /* \"#utility.yul\":2828:2857   */\n      swap1\n      pop\n        /* \"#utility.yul\":2866:2899   */\n      tag_131\n        /* \"#utility.yul\":2893:2898   */\n      dup2\n        /* \"#utility.yul\":2866:2899   */\n      tag_69\n      jump\t// in\n    tag_131:\n        /* \"#utility.yul\":2766:2905   */\n      swap3\n      swap2\n      pop\n      pop\n      jump\t// out\n        /* \"#utility.yul\":2911:4036   */\n    tag_9:\n        /* \"#utility.yul\":3017:3023   */\n      0x00\n        /* \"#utility.yul\":3025:3031   */\n      dup1\n        /* \"#utility.yul\":3033:3039   */\n      0x00\n        /* \"#utility.yul\":3041:3047   */\n      dup1\n        /* \"#utility.yul\":3090:3093   */\n      0x80\n        /* \"#utility.yul\":3078:3087   */\n      dup6\n        /* \"#utility.yul\":3069:3076   */\n      dup8\n        /* \"#utility.yul\":3065:3088   */\n      sub\n        /* \"#utility.yul\":3061:3094   */\n      slt\n        /* \"#utility.yul\":3058:3178   */\n      iszero\n      tag_133\n      jumpi\n        /* \"#utility.yul\":3097:3176   */\n      tag_134\n      tag_56\n      jump\t// in\n    tag_134:\n        /* \"#utility.yul\":3058:3178   */\n    tag_133:\n        /* \"#utility.yul\":3245:3246   */\n      0x00\n        /* \"#utility.yul\":3234:3243   */\n      dup6\n        /* \"#utility.yul\":3230:3247   */\n      add\n        /* \"#utility.yul\":3217:3248   */\n      calldataload\n        /* \"#utility.yul\":3275:3293   */\n      0xffffffffffffffff\n        /* \"#utility.yul\":3267:3273   */\n      dup2\n        /* \"#utility.yul\":3264:3294   */\n      gt\n        /* \"#utility.yul\":3261:3378   */\n      iszero\n      tag_135\n      jumpi\n        /* \"#utility.yul\":3297:3376   */\n      tag_136\n      tag_57\n      jump\t// in\n    tag_136:\n        /* \"#utility.yul\":3261:3378   */\n    tag_135:\n        /* \"#utility.yul\":3402:3465   */\n      tag_137\n        /* \"#utility.yul\":3457:3464   */\n      dup8\n        /* \"#utility.yul\":3448:3454   */\n      dup3\n        /* \"#utility.yul\":3437:3446   */\n      dup9\n        /* \"#utility.yul\":3433:3455   */\n      add\n        /* \"#utility.yul\":3402:3465   */\n      tag_67\n      jump\t// in\n    tag_137:\n        /* \"#utility.yul\":3392:3465   */\n      swap5\n      pop\n        /* \"#utility.yul\":3188:3475   */\n      pop\n        /* \"#utility.yul\":3514:3516   */\n      0x20\n        /* \"#utility.yul\":3540:3593   */\n      tag_138\n        /* \"#utility.yul\":3585:3592   */\n      dup8\n        /* \"#utility.yul\":3576:3582   */\n      dup3\n        /* \"#utility.yul\":3565:3574   */\n      dup9\n        /* \"#utility.yul\":3561:3583   */\n      add\n        /* \"#utility.yul\":3540:3593   */\n      tag_70\n      jump\t// in\n    tag_138:\n        /* \"#utility.yul\":3530:3593   */\n      swap4\n      pop\n        /* \"#utility.yul\":3485:3603   */\n      pop\n        /* \"#utility.yul\":3670:3672   */\n      0x40\n        /* \"#utility.yul\":3659:3668   */\n      dup6\n        /* \"#utility.yul\":3655:3673   */\n      add\n        /* \"#utility.yul\":3642:3674   */\n      calldataload\n        /* \"#utility.yul\":3701:3719   */\n      0xffffffffffffffff\n        /* \"#utility.yul\":3693:3699   */\n      dup2\n        /* \"#utility.yul\":3690:3720   */\n      gt\n        /* \"#utility.yul\":3687:3804   */\n      iszero\n      tag_139\n      jumpi\n        /* \"#utility.yul\":3723:3802   */\n      tag_140\n      tag_57\n      jump\t// in\n    tag_140:\n        /* \"#utility.yul\":3687:3804   */\n    tag_139:\n        /* \"#utility.yul\":3828:3891   */\n      tag_141\n        /* \"#utility.yul\":3883:3890   */\n      dup8\n        /* \"#utility.yul\":3874:3880   */\n      dup3\n        /* \"#utility.yul\":3863:3872   */\n      dup9\n        /* \"#utility.yul\":3859:3881   */\n      add\n        /* \"#utility.yul\":3828:3891   */\n      tag_67\n      jump\t// in\n    tag_141:\n        /* \"#utility.yul\":3818:3891   */\n      swap3\n      pop\n        /* \"#utility.yul\":3613:3901   */\n      pop\n        /* \"#utility.yul\":3940:3942   */\n      0x60\n        /* \"#utility.yul\":3966:4019   */\n      tag_142\n        /* \"#utility.yul\":4011:4018   */\n      dup8\n        /* \"#utility.yul\":4002:4008   */\n      dup3\n        /* \"#utility.yul\":3991:4000   */\n      dup9\n        /* \"#utility.yul\":3987:4009   */\n      add\n        /* \"#utility.yul\":3966:4019   */\n      tag_70\n      jump\t// in\n    tag_142:\n        /* \"#utility.yul\":3956:4019   */\n      swap2\n      pop\n        /* \"#utility.yul\":3911:4029   */\n      pop\n        /* \"#utility.yul\":2911:4036   */\n      swap3\n      swap6\n      swap2\n      swap5\n      pop\n      swap3\n      pop\n      jump\t// out\n        /* \"#utility.yul\":4042:4551   */\n    tag_13:\n        /* \"#utility.yul\":4111:4117   */\n      0x00\n        /* \"#utility.yul\":4160:4162   */\n      0x20\n        /* \"#utility.yul\":4148:4157   */\n      dup3\n        /* \"#utility.yul\":4139:4146   */\n      dup5\n        /* \"#utility.yul\":4135:4158   */\n      sub\n        /* \"#utility.yul\":4131:4163   */\n      slt\n        /* \"#utility.yul\":4128:4247   */\n      iszero\n      tag_144\n      jumpi\n        /* \"#utility.yul\":4166:4245   */\n      tag_145\n      tag_56\n      jump\t// in\n    tag_145:\n        /* \"#utility.yul\":4128:4247   */\n    tag_144:\n        /* \"#utility.yul\":4314:4315   */\n      0x00\n        /* \"#utility.yul\":4303:4312   */\n      dup3\n        /* \"#utility.yul\":4299:4316   */\n      add\n        /* \"#utility.yul\":4286:4317   */\n      calldataload\n        /* \"#utility.yul\":4344:4362   */\n      0xffffffffffffffff\n        /* \"#utility.yul\":4336:4342   */\n      dup2\n        /* \"#utility.yul\":4333:4363   */\n      gt\n        /* \"#utility.yul\":4330:4447   */\n      iszero\n      tag_146\n      jumpi\n        /* \"#utility.yul\":4366:4445   */\n      tag_147\n      tag_57\n      jump\t// in\n    tag_147:\n        /* \"#utility.yul\":4330:4447   */\n    tag_146:\n        /* \"#utility.yul\":4471:4534   */\n      tag_148\n        /* \"#utility.yul\":4526:4533   */\n      dup5\n        /* \"#utility.yul\":4517:4523   */\n      dup3\n        /* \"#utility.yul\":4506:4515   */\n      dup6\n        /* \"#utility.yul\":4502:4524   */\n      add\n        /* \"#utility.yul\":4471:4534   */\n      tag_67\n      jump\t// in\n    tag_148:\n        /* \"#utility.yul\":4461:4534   */\n      swap2\n      pop\n        /* \"#utility.yul\":4257:4544   */\n      pop\n        /* \"#utility.yul\":4042:4551   */\n      swap3\n      swap2\n      pop\n      pop\n      jump\t// out\n        /* \"#utility.yul\":4557:4656   */\n    tag_71:\n        /* \"#utility.yul\":4609:4615   */\n      0x00\n        /* \"#utility.yul\":4643:4648   */\n      dup2\n        /* \"#utility.yul\":4637:4649   */\n      mload\n        /* \"#utility.yul\":4627:4649   */\n      swap1\n      pop\n        /* \"#utility.yul\":4557:4656   */\n      swap2\n      swap1\n      pop\n      jump\t// out\n        /* \"#utility.yul\":4662:4831   */\n    tag_72:\n        /* \"#utility.yul\":4746:4757   */\n      0x00\n        /* \"#utility.yul\":4780:4786   */\n      dup3\n        /* \"#utility.yul\":4775:4778   */\n      dup3\n        /* \"#utility.yul\":4768:4787   */\n      mstore\n        /* \"#utility.yul\":4820:4824   */\n      0x20\n        /* \"#utility.yul\":4815:4818   */\n      dup3\n        /* \"#utility.yul\":4811:4825   */\n      add\n        /* \"#utility.yul\":4796:4825   */\n      swap1\n      pop\n        /* \"#utility.yul\":4662:4831   */\n      swap3\n      swap2\n      pop\n      pop\n      jump\t// out\n        /* \"#utility.yul\":4837:5085   */\n    tag_73:\n        /* \"#utility.yul\":4919:4920   */\n      0x00\n        /* \"#utility.yul\":4929:5042   */\n    tag_152:\n        /* \"#utility.yul\":4943:4949   */\n      dup4\n        /* \"#utility.yul\":4940:4941   */\n      dup2\n        /* \"#utility.yul\":4937:4950   */\n      lt\n        /* \"#utility.yul\":4929:5042   */\n      iszero\n      tag_154\n      jumpi\n        /* \"#utility.yul\":5028:5029   */\n      dup1\n        /* \"#utility.yul\":5023:5026   */\n      dup3\n        /* \"#utility.yul\":5019:5030   */\n      add\n        /* \"#utility.yul\":5013:5031   */\n      mload\n        /* \"#utility.yul\":5009:5010   */\n      dup2\n        /* \"#utility.yul\":5004:5007   */\n      dup5\n        /* \"#utility.yul\":5000:5011   */\n      add\n        /* \"#utility.yul\":4993:5032   */\n      mstore\n        /* \"#utility.yul\":4965:4967   */\n      0x20\n        /* \"#utility.yul\":4962:4963   */\n      dup2\n        /* \"#utility.yul\":4958:4968   */\n      add\n        /* \"#utility.yul\":4953:4968   */\n      swap1\n      pop\n        /* \"#utility.yul\":4929:5042   */\n      jump(tag_152)\n    tag_154:\n        /* \"#utility.yul\":5076:5077   */\n      0x00\n        /* \"#utility.yul\":5067:5073   */\n      dup5\n        /* \"#utility.yul\":5062:5065   */\n      dup5\n        /* \"#utility.yul\":5058:5074   */\n      add\n        /* \"#utility.yul\":5051:5078   */\n      mstore\n        /* \"#utility.yul\":4899:5085   */\n      pop\n        /* \"#utility.yul\":4837:5085   */\n      pop\n      pop\n      pop\n      jump\t// out\n        /* \"#utility.yul\":5091:5468   */\n    tag_74:\n        /* \"#utility.yul\":5179:5182   */\n      0x00\n        /* \"#utility.yul\":5207:5246   */\n      tag_156\n        /* \"#utility.yul\":5240:5245   */\n      dup3\n        /* \"#utility.yul\":5207:5246   */\n      tag_71\n      jump\t// in\n    tag_156:\n        /* \"#utility.yul\":5262:5333   */\n      tag_157\n        /* \"#utility.yul\":5326:5332   */\n      dup2\n        /* \"#utility.yul\":5321:5324   */\n      dup6\n        /* \"#utility.yul\":5262:5333   */\n      tag_72\n      jump\t// in\n    tag_157:\n        /* \"#utility.yul\":5255:5333   */\n      swap4\n      pop\n        /* \"#utility.yul\":5342:5407   */\n      tag_158\n        /* \"#utility.yul\":5400:5406   */\n      dup2\n        /* \"#utility.yul\":5395:5398   */\n      dup6\n        /* \"#utility.yul\":5388:5392   */\n      0x20\n        /* \"#utility.yul\":5381:5386   */\n      dup7\n        /* \"#utility.yul\":5377:5393   */\n      add\n        /* \"#utility.yul\":5342:5407   */\n      tag_73\n      jump\t// in\n    tag_158:\n        /* \"#utility.yul\":5432:5461   */\n      tag_159\n        /* \"#utility.yul\":5454:5460   */\n      dup2\n        /* \"#utility.yul\":5432:5461   */\n      tag_60\n      jump\t// in\n    tag_159:\n        /* \"#utility.yul\":5427:5430   */\n      dup5\n        /* \"#utility.yul\":5423:5462   */\n      add\n        /* \"#utility.yul\":5416:5462   */\n      swap2\n      pop\n        /* \"#utility.yul\":5183:5468   */\n      pop\n        /* \"#utility.yul\":5091:5468   */\n      swap3\n      swap2\n      pop\n      pop\n      jump\t// out\n        /* \"#utility.yul\":5474:5592   */\n    tag_75:\n        /* \"#utility.yul\":5561:5585   */\n      tag_161\n        /* \"#utility.yul\":5579:5584   */\n      dup2\n        /* \"#utility.yul\":5561:5585   */\n      tag_68\n      jump\t// in\n    tag_161:\n        /* \"#utility.yul\":5556:5559   */\n      dup3\n        /* \"#utility.yul\":5549:5586   */\n      mstore\n        /* \"#utility.yul\":5474:5592   */\n      pop\n      pop\n      jump\t// out\n        /* \"#utility.yul\":5598:6021   */\n    tag_16:\n        /* \"#utility.yul\":5739:5743   */\n      0x00\n        /* \"#utility.yul\":5777:5779   */\n      0x40\n        /* \"#utility.yul\":5766:5775   */\n      dup3\n        /* \"#utility.yul\":5762:5780   */\n      add\n        /* \"#utility.yul\":5754:5780   */\n      swap1\n      pop\n        /* \"#utility.yul\":5826:5835   */\n      dup2\n        /* \"#utility.yul\":5820:5824   */\n      dup2\n        /* \"#utility.yul\":5816:5836   */\n      sub\n        /* \"#utility.yul\":5812:5813   */\n      0x00\n        /* \"#utility.yul\":5801:5810   */\n      dup4\n        /* \"#utility.yul\":5797:5814   */\n      add\n        /* \"#utility.yul\":5790:5837   */\n      mstore\n        /* \"#utility.yul\":5854:5932   */\n      tag_163\n        /* \"#utility.yul\":5927:5931   */\n      dup2\n        /* \"#utility.yul\":5918:5924   */\n      dup6\n        /* \"#utility.yul\":5854:5932   */\n      tag_74\n      jump\t// in\n    tag_163:\n        /* \"#utility.yul\":5846:5932   */\n      swap1\n      pop\n        /* \"#utility.yul\":5942:6014   */\n      tag_164\n        /* \"#utility.yul\":6010:6012   */\n      0x20\n        /* \"#utility.yul\":5999:6008   */\n      dup4\n        /* \"#utility.yul\":5995:6013   */\n      add\n        /* \"#utility.yul\":5986:5992   */\n      dup5\n        /* \"#utility.yul\":5942:6014   */\n      tag_75\n      jump\t// in\n    tag_164:\n        /* \"#utility.yul\":5598:6021   */\n      swap4\n      swap3\n      pop\n      pop\n      pop\n      jump\t// out\n        /* \"#utility.yul\":6027:6681   */\n    tag_19:\n        /* \"#utility.yul\":6105:6111   */\n      0x00\n        /* \"#utility.yul\":6113:6119   */\n      dup1\n        /* \"#utility.yul\":6162:6164   */\n      0x40\n        /* \"#utility.yul\":6150:6159   */\n      dup4\n        /* \"#utility.yul\":6141:6148   */\n      dup6\n        /* \"#utility.yul\":6137:6160   */\n      sub\n        /* \"#utility.yul\":6133:6165   */\n      slt\n        /* \"#utility.yul\":6130:6249   */\n      iszero\n      tag_166\n      jumpi\n        /* \"#utility.yul\":6168:6247   */\n      tag_167\n      tag_56\n      jump\t// in\n    tag_167:\n        /* \"#utility.yul\":6130:6249   */\n    tag_166:\n        /* \"#utility.yul\":6316:6317   */\n      0x00\n        /* \"#utility.yul\":6305:6314   */\n      dup4\n        /* \"#utility.yul\":6301:6318   */\n      add\n        /* \"#utility.yul\":6288:6319   */\n      calldataload\n        /* \"#utility.yul\":6346:6364   */\n      0xffffffffffffffff\n        /* \"#utility.yul\":6338:6344   */\n      dup2\n        /* \"#utility.yul\":6335:6365   */\n      gt\n        /* \"#utility.yul\":6332:6449   */\n      iszero\n      tag_168\n      jumpi\n        /* \"#utility.yul\":6368:6447   */\n      tag_169\n      tag_57\n      jump\t// in\n    tag_169:\n        /* \"#utility.yul\":6332:6449   */\n    tag_168:\n        /* \"#utility.yul\":6473:6536   */\n      tag_170\n        /* \"#utility.yul\":6528:6535   */\n      dup6\n        /* \"#utility.yul\":6519:6525   */\n      dup3\n        /* \"#utility.yul\":6508:6517   */\n      dup7\n        /* \"#utility.yul\":6504:6526   */\n      add\n        /* \"#utility.yul\":6473:6536   */\n      tag_67\n      jump\t// in\n    tag_170:\n        /* \"#utility.yul\":6463:6536   */\n      swap3\n      pop\n        /* \"#utility.yul\":6259:6546   */\n      pop\n        /* \"#utility.yul\":6585:6587   */\n      0x20\n        /* \"#utility.yul\":6611:6664   */\n      tag_171\n        /* \"#utility.yul\":6656:6663   */\n      dup6\n        /* \"#utility.yul\":6647:6653   */\n      dup3\n        /* \"#utility.yul\":6636:6645   */\n      dup7\n        /* \"#utility.yul\":6632:6654   */\n      add\n        /* \"#utility.yul\":6611:6664   */\n      tag_70\n      jump\t// in\n    tag_171:\n        /* \"#utility.yul\":6601:6664   */\n      swap2\n      pop\n        /* \"#utility.yul\":6556:6674   */\n      pop\n        /* \"#utility.yul\":6027:6681   */\n      swap3\n      pop\n      swap3\n      swap1\n      pop\n      jump\t// out\n        /* \"#utility.yul\":6687:7666   */\n    tag_24:\n        /* \"#utility.yul\":6784:6790   */\n      0x00\n        /* \"#utility.yul\":6792:6798   */\n      dup1\n        /* \"#utility.yul\":6800:6806   */\n      0x00\n        /* \"#utility.yul\":6849:6851   */\n      0x60\n        /* \"#utility.yul\":6837:6846   */\n      dup5\n        /* \"#utility.yul\":6828:6835   */\n      dup7\n        /* \"#utility.yul\":6824:6847   */\n      sub\n        /* \"#utility.yul\":6820:6852   */\n      slt\n        /* \"#utility.yul\":6817:6936   */\n      iszero\n      tag_173\n      jumpi\n        /* \"#utility.yul\":6855:6934   */\n      tag_174\n      tag_56\n      jump\t// in\n    tag_174:\n        /* \"#utility.yul\":6817:6936   */\n    tag_173:\n        /* \"#utility.yul\":7003:7004   */\n      0x00\n        /* \"#utility.yul\":6992:7001   */\n      dup5\n        /* \"#utility.yul\":6988:7005   */\n      add\n        /* \"#utility.yul\":6975:7006   */\n      calldataload\n        /* \"#utility.yul\":7033:7051   */\n      0xffffffffffffffff\n        /* \"#utility.yul\":7025:7031   */\n      dup2\n        /* \"#utility.yul\":7022:7052   */\n      gt\n        /* \"#utility.yul\":7019:7136   */\n      iszero\n      tag_175\n      jumpi\n        /* \"#utility.yul\":7055:7134   */\n      tag_176\n      tag_57\n      jump\t// in\n    tag_176:\n        /* \"#utility.yul\":7019:7136   */\n    tag_175:\n        /* \"#utility.yul\":7160:7223   */\n      tag_177\n        /* \"#utility.yul\":7215:7222   */\n      dup7\n        /* \"#utility.yul\":7206:7212   */\n      dup3\n        /* \"#utility.yul\":7195:7204   */\n      dup8\n        /* \"#utility.yul\":7191:7213   */\n      add\n        /* \"#utility.yul\":7160:7223   */\n      tag_67\n      jump\t// in\n    tag_177:\n        /* \"#utility.yul\":7150:7223   */\n      swap4\n      pop\n        /* \"#utility.yul\":6946:7233   */\n      pop\n        /* \"#utility.yul\":7300:7302   */\n      0x20\n        /* \"#utility.yul\":7289:7298   */\n      dup5\n        /* \"#utility.yul\":7285:7303   */\n      add\n        /* \"#utility.yul\":7272:7304   */\n      calldataload\n        /* \"#utility.yul\":7331:7349   */\n      0xffffffffffffffff\n        /* \"#utility.yul\":7323:7329   */\n      dup2\n        /* \"#utility.yul\":7320:7350   */\n      gt\n        /* \"#utility.yul\":7317:7434   */\n      iszero\n      tag_178\n      jumpi\n        /* \"#utility.yul\":7353:7432   */\n      tag_179\n      tag_57\n      jump\t// in\n    tag_179:\n        /* \"#utility.yul\":7317:7434   */\n    tag_178:\n        /* \"#utility.yul\":7458:7521   */\n      tag_180\n        /* \"#utility.yul\":7513:7520   */\n      dup7\n        /* \"#utility.yul\":7504:7510   */\n      dup3\n        /* \"#utility.yul\":7493:7502   */\n      dup8\n        /* \"#utility.yul\":7489:7511   */\n      add\n        /* \"#utility.yul\":7458:7521   */\n      tag_67\n      jump\t// in\n    tag_180:\n        /* \"#utility.yul\":7448:7521   */\n      swap3\n      pop\n        /* \"#utility.yul\":7243:7531   */\n      pop\n        /* \"#utility.yul\":7570:7572   */\n      0x40\n        /* \"#utility.yul\":7596:7649   */\n      tag_181\n        /* \"#utility.yul\":7641:7648   */\n      dup7\n        /* \"#utility.yul\":7632:7638   */\n      dup3\n        /* \"#utility.yul\":7621:7630   */\n      dup8\n        /* \"#utility.yul\":7617:7639   */\n      add\n        /* \"#utility.yul\":7596:7649   */\n      tag_70\n      jump\t// in\n    tag_181:\n        /* \"#utility.yul\":7586:7649   */\n      swap2\n      pop\n        /* \"#utility.yul\":7541:7659   */\n      pop\n        /* \"#utility.yul\":6687:7666   */\n      swap3\n      pop\n      swap3\n      pop\n      swap3\n      jump\t// out\n        /* \"#utility.yul\":7672:7820   */\n    tag_76:\n        /* \"#utility.yul\":7774:7785   */\n      0x00\n        /* \"#utility.yul\":7811:7814   */\n      dup2\n        /* \"#utility.yul\":7796:7814   */\n      swap1\n      pop\n        /* \"#utility.yul\":7672:7820   */\n      swap3\n      swap2\n      pop\n      pop\n      jump\t// out\n        /* \"#utility.yul\":7826:8216   */\n    tag_77:\n        /* \"#utility.yul\":7932:7935   */\n      0x00\n        /* \"#utility.yul\":7960:7999   */\n      tag_184\n        /* \"#utility.yul\":7993:7998   */\n      dup3\n        /* \"#utility.yul\":7960:7999   */\n      tag_71\n      jump\t// in\n    tag_184:\n        /* \"#utility.yul\":8015:8104   */\n      tag_185\n        /* \"#utility.yul\":8097:8103   */\n      dup2\n        /* \"#utility.yul\":8092:8095   */\n      dup6\n        /* \"#utility.yul\":8015:8104   */\n      tag_76\n      jump\t// in\n    tag_185:\n        /* \"#utility.yul\":8008:8104   */\n      swap4\n      pop\n        /* \"#utility.yul\":8113:8178   */\n      tag_186\n        /* \"#utility.yul\":8171:8177   */\n      dup2\n        /* \"#utility.yul\":8166:8169   */\n      dup6\n        /* \"#utility.yul\":8159:8163   */\n      0x20\n        /* \"#utility.yul\":8152:8157   */\n      dup7\n        /* \"#utility.yul\":8148:8164   */\n      add\n        /* \"#utility.yul\":8113:8178   */\n      tag_73\n      jump\t// in\n    tag_186:\n        /* \"#utility.yul\":8203:8209   */\n      dup1\n        /* \"#utility.yul\":8198:8201   */\n      dup5\n        /* \"#utility.yul\":8194:8210   */\n      add\n        /* \"#utility.yul\":8187:8210   */\n      swap2\n      pop\n        /* \"#utility.yul\":7936:8216   */\n      pop\n        /* \"#utility.yul\":7826:8216   */\n      swap3\n      swap2\n      pop\n      pop\n      jump\t// out\n        /* \"#utility.yul\":8222:8497   */\n    tag_28:\n        /* \"#utility.yul\":8354:8357   */\n      0x00\n        /* \"#utility.yul\":8376:8471   */\n      tag_188\n        /* \"#utility.yul\":8467:8470   */\n      dup3\n        /* \"#utility.yul\":8458:8464   */\n      dup5\n        /* \"#utility.yul\":8376:8471   */\n      tag_77\n      jump\t// in\n    tag_188:\n        /* \"#utility.yul\":8369:8471   */\n      swap2\n      pop\n        /* \"#utility.yul\":8488:8491   */\n      dup2\n        /* \"#utility.yul\":8481:8491   */\n      swap1\n      pop\n        /* \"#utility.yul\":8222:8497   */\n      swap3\n      swap2\n      pop\n      pop\n      jump\t// out\n        /* \"#utility.yul\":8503:8683   */\n    tag_78:\n        /* \"#utility.yul\":8551:8628   */\n      0x4e487b7100000000000000000000000000000000000000000000000000000000\n        /* \"#utility.yul\":8548:8549   */\n      0x00\n        /* \"#utility.yul\":8541:8629   */\n      mstore\n        /* \"#utility.yul\":8648:8652   */\n      0x22\n        /* \"#utility.yul\":8645:8646   */\n      0x04\n        /* \"#utility.yul\":8638:8653   */\n      mstore\n        /* \"#utility.yul\":8672:8676   */\n      0x24\n        /* \"#utility.yul\":8669:8670   */\n      0x00\n        /* \"#utility.yul\":8662:8677   */\n      revert\n        /* \"#utility.yul\":8689:9009   */\n    tag_35:\n        /* \"#utility.yul\":8733:8739   */\n      0x00\n        /* \"#utility.yul\":8770:8771   */\n      0x02\n        /* \"#utility.yul\":8764:8768   */\n      dup3\n        /* \"#utility.yul\":8760:8772   */\n      div\n        /* \"#utility.yul\":8750:8772   */\n      swap1\n      pop\n        /* \"#utility.yul\":8817:8818   */\n      0x01\n        /* \"#utility.yul\":8811:8815   */\n      dup3\n        /* \"#utility.yul\":8807:8819   */\n      and\n        /* \"#utility.yul\":8838:8856   */\n      dup1\n        /* \"#utility.yul\":8828:8909   */\n      tag_191\n      jumpi\n        /* \"#utility.yul\":8894:8898   */\n      0x7f\n        /* \"#utility.yul\":8886:8892   */\n      dup3\n        /* \"#utility.yul\":8882:8899   */\n      and\n        /* \"#utility.yul\":8872:8899   */\n      swap2\n      pop\n        /* \"#utility.yul\":8828:8909   */\n    tag_191:\n        /* \"#utility.yul\":8956:8958   */\n      0x20\n        /* \"#utility.yul\":8948:8954   */\n      dup3\n        /* \"#utility.yul\":8945:8959   */\n      lt\n        /* \"#utility.yul\":8925:8943   */\n      dup2\n        /* \"#utility.yul\":8922:8960   */\n      sub\n        /* \"#utility.yul\":8919:9003   */\n      tag_192\n      jumpi\n        /* \"#utility.yul\":8975:8993   */\n      tag_193\n      tag_78\n      jump\t// in\n    tag_193:\n        /* \"#utility.yul\":8919:9003   */\n    tag_192:\n        /* \"#utility.yul\":8740:9009   */\n      pop\n        /* \"#utility.yul\":8689:9009   */\n      swap2\n      swap1\n      pop\n      jump\t// out\n        /* \"#utility.yul\":9015:9156   */\n    tag_79:\n        /* \"#utility.yul\":9064:9068   */\n      0x00\n        /* \"#utility.yul\":9087:9090   */\n      dup2\n        /* \"#utility.yul\":9079:9090   */\n      swap1\n      pop\n        /* \"#utility.yul\":9110:9113   */\n      dup2\n        /* \"#utility.yul\":9107:9108   */\n      0x00\n        /* \"#utility.yul\":9100:9114   */\n      mstore\n        /* \"#utility.yul\":9144:9148   */\n      0x20\n        /* \"#utility.yul\":9141:9142   */\n      0x00\n        /* \"#utility.yul\":9131:9149   */\n      keccak256\n        /* \"#utility.yul\":9123:9149   */\n      swap1\n      pop\n        /* \"#utility.yul\":9015:9156   */\n      swap2\n      swap1\n      pop\n      jump\t// out\n        /* \"#utility.yul\":9162:9255   */\n    tag_80:\n        /* \"#utility.yul\":9199:9205   */\n      0x00\n        /* \"#utility.yul\":9246:9248   */\n      0x20\n        /* \"#utility.yul\":9241:9243   */\n      0x1f\n        /* \"#utility.yul\":9234:9239   */\n      dup4\n        /* \"#utility.yul\":9230:9244   */\n      add\n        /* \"#utility.yul\":9226:9249   */\n      div\n        /* \"#utility.yul\":9216:9249   */\n      swap1\n      pop\n        /* \"#utility.yul\":9162:9255   */\n      swap2\n      swap1\n      pop\n      jump\t// out\n        /* \"#utility.yul\":9261:9368   */\n    tag_81:\n        /* \"#utility.yul\":9305:9313   */\n      0x00\n        /* \"#utility.yul\":9355:9360   */\n      dup3\n        /* \"#utility.yul\":9349:9353   */\n      dup3\n        /* \"#utility.yul\":9345:9361   */\n      shl\n        /* \"#utility.yul\":9324:9361   */\n      swap1\n      pop\n        /* \"#utility.yul\":9261:9368   */\n      swap3\n      swap2\n      pop\n      pop\n      jump\t// out\n        /* \"#utility.yul\":9374:9767   */\n    tag_82:\n        /* \"#utility.yul\":9443:9449   */\n      0x00\n        /* \"#utility.yul\":9493:9494   */\n      0x08\n        /* \"#utility.yul\":9481:9491   */\n      dup4\n        /* \"#utility.yul\":9477:9495   */\n      mul\n        /* \"#utility.yul\":9516:9613   */\n      tag_198\n        /* \"#utility.yul\":9546:9612   */\n      0xffffffffffffffffffffffffffffffffffffffffffffffffffffffffffffffff\n        /* \"#utility.yul\":9535:9544   */\n      dup3\n        /* \"#utility.yul\":9516:9613   */\n      tag_81\n      jump\t// in\n    tag_198:\n        /* \"#utility.yul\":9634:9673   */\n      tag_199\n        /* \"#utility.yul\":9664:9672   */\n      dup7\n        /* \"#utility.yul\":9653:9662   */\n      dup4\n        /* \"#utility.yul\":9634:9673   */\n      tag_81\n      jump\t// in\n    tag_199:\n        /* \"#utility.yul\":9622:9673   */\n      swap6\n      pop\n        /* \"#utility.yul\":9706:9710   */\n      dup1\n        /* \"#utility.yul\":9702:9711   */\n      not\n        /* \"#utility.yul\":9695:9700   */\n      dup5\n        /* \"#utility.yul\":9691:9712   */\n      and\n        /* \"#utility.yul\":9682:9712   */\n      swap4\n      pop\n        /* \"#utility.yul\":9755:9759   */\n      dup1\n        /* \"#utility.yul\":9745:9753   */\n      dup7\n        /* \"#utility.yul\":9741:9760   */\n      and\n        /* \"#utility.yul\":9734:9739   */\n      dup5\n        /* \"#utility.yul\":9731:9761   */\n      or\n        /* \"#utility.yul\":9721:9761   */\n      swap3\n      pop\n        /* \"#utility.yul\":9450:9767   */\n      pop\n      pop\n        /* \"#utility.yul\":9374:9767   */\n      swap4\n      swap3\n      pop\n      pop\n      pop\n      jump\t// out\n        /* \"#utility.yul\":9773:9833   */\n    tag_83:\n        /* \"#utility.yul\":9801:9804   */\n      0x00\n        /* \"#utility.yul\":9822:9827   */\n      dup2\n        /* \"#utility.yul\":9815:9827   */\n      swap1\n      pop\n        /* \"#utility.yul\":9773:9833   */\n      swap2\n      swap1\n      pop\n      jump\t// out\n        /* \"#utility.yul\":9839:9981   */\n    tag_84:\n        /* \"#utility.yul\":9889:9898   */\n      0x00\n        /* \"#utility.yul\":9922:9975   */\n      tag_202\n        /* \"#utility.yul\":9940:9974   */\n      tag_203\n        /* \"#utility.yul\":9949:9973   */\n      tag_204\n        /* \"#utility.yul\":9967:9972   */\n      dup5\n        /* \"#utility.yul\":9949:9973   */\n      tag_68\n      jump\t// in\n    tag_204:\n        /* \"#utility.yul\":9940:9974   */\n      tag_83\n      jump\t// in\n    tag_203:\n        /* \"#utility.yul\":9922:9975   */\n      tag_68\n      jump\t// in\n    tag_202:\n        /* \"#utility.yul\":9909:9975   */\n      swap1\n      pop\n        /* \"#utility.yul\":9839:9981   */\n      swap2\n      swap1\n      pop\n      jump\t// out\n        /* \"#utility.yul\":9987:10062   */\n    tag_85:\n        /* \"#utility.yul\":10030:10033   */\n      0x00\n        /* \"#utility.yul\":10051:10056   */\n      dup2\n        /* \"#utility.yul\":10044:10056   */\n      swap1\n      pop\n        /* \"#utility.yul\":9987:10062   */\n      swap2\n      swap1\n      pop\n      jump\t// out\n        /* \"#utility.yul\":10068:10337   */\n    tag_86:\n        /* \"#utility.yul\":10178:10217   */\n      tag_207\n        /* \"#utility.yul\":10209:10216   */\n      dup4\n        /* \"#utility.yul\":10178:10217   */\n      tag_84\n      jump\t// in\n    tag_207:\n        /* \"#utility.yul\":10239:10330   */\n      tag_208\n        /* \"#utility.yul\":10288:10329   */\n      tag_209\n        /* \"#utility.yul\":10312:10328   */\n      dup3\n        /* \"#utility.yul\":10288:10329   */\n      tag_85\n      jump\t// in\n    tag_209:\n        /* \"#utility.yul\":10280:10286   */\n      dup5\n        /* \"#utility.yul\":10273:10277   */\n      dup5\n        /* \"#utility.yul\":10267:10278   */\n      sload\n        /* \"#utility.yul\":10239:10330   */\n      tag_82\n      jump\t// in\n    tag_208:\n        /* \"#utility.yul\":10233:10237   */\n      dup3\n        /* \"#utility.yul\":10226:10331   */\n      sstore\n        /* \"#utility.yul\":10144:10337   */\n      pop\n        /* \"#utility.yul\":10068:10337   */\n      pop\n      pop\n      pop\n      jump\t// out\n        /* \"#utility.yul\":10343:10416   */\n    tag_87:\n        /* \"#utility.yul\":10388:10391   */\n      0x00\n        /* \"#utility.yul\":10343:10416   */\n      swap1\n      jump\t// out\n        /* \"#utility.yul\":10422:10611   */\n    tag_88:\n        /* \"#utility.yul\":10499:10531   */\n      tag_212\n      tag_87\n      jump\t// in\n    tag_212:\n        /* \"#utility.yul\":10540:10605   */\n      tag_213\n        /* \"#utility.yul\":10598:10604   */\n      dup2\n        /* \"#utility.yul\":10590:10596   */\n      dup5\n        /* \"#utility.yul\":10584:10588   */\n      dup5\n        /* \"#utility.yul\":10540:10605   */\n      tag_86\n      jump\t// in\n    tag_213:\n        /* \"#utility.yul\":10475:10611   */\n      pop\n        /* \"#utility.yul\":10422:10611   */\n      pop\n      pop\n      jump\t// out\n        /* \"#utility.yul\":10617:10803   */\n    tag_89:\n        /* \"#utility.yul\":10677:10797   */\n    tag_215:\n        /* \"#utility.yul\":10694:10697   */\n      dup2\n        /* \"#utility.yul\":10687:10692   */\n      dup2\n        /* \"#utility.yul\":10684:10698   */\n      lt\n        /* \"#utility.yul\":10677:10797   */\n      iszero\n      tag_217\n      jumpi\n        /* \"#utility.yul\":10748:10787   */\n      tag_218\n        /* \"#utility.yul\":10785:10786   */\n      0x00\n        /* \"#utility.yul\":10778:10783   */\n      dup3\n        /* \"#utility.yul\":10748:10787   */\n      tag_88\n      jump\t// in\n    tag_218:\n        /* \"#utility.yul\":10721:10722   */\n      0x01\n        /* \"#utility.yul\":10714:10719   */\n      dup2\n        /* \"#utility.yul\":10710:10723   */\n      add\n        /* \"#utility.yul\":10701:10723   */\n      swap1\n      pop\n        /* \"#utility.yul\":10677:10797   */\n      jump(tag_215)\n    tag_217:\n        /* \"#utility.yul\":10617:10803   */\n      pop\n      pop\n      jump\t// out\n        /* \"#utility.yul\":10809:11352   */\n    tag_90:\n        /* \"#utility.yul\":10910:10912   */\n      0x1f\n        /* \"#utility.yul\":10905:10908   */\n      dup3\n        /* \"#utility.yul\":10902:10913   */\n      gt\n        /* \"#utility.yul\":10899:11345   */\n      iszero\n      tag_220\n      jumpi\n        /* \"#utility.yul\":10944:10982   */\n      tag_221\n        /* \"#utility.yul\":10976:10981   */\n      dup2\n        /* \"#utility.yul\":10944:10982   */\n      tag_79\n      jump\t// in\n    tag_221:\n        /* \"#utility.yul\":11028:11057   */\n      tag_222\n        /* \"#utility.yul\":11046:11056   */\n      dup5\n        /* \"#utility.yul\":11028:11057   */\n      tag_80\n      jump\t// in\n    tag_222:\n        /* \"#utility.yul\":11018:11026   */\n      dup2\n        /* \"#utility.yul\":11014:11058   */\n      add\n        /* \"#utility.yul\":11211:11213   */\n      0x20\n        /* \"#utility.yul\":11199:11209   */\n      dup6\n        /* \"#utility.yul\":11196:11214   */\n      lt\n        /* \"#utility.yul\":11193:11242   */\n      iszero\n      tag_223\n      jumpi\n        /* \"#utility.yul\":11232:11240   */\n      dup2\n        /* \"#utility.yul\":11217:11240   */\n      swap1\n      pop\n        /* \"#utility.yul\":11193:11242   */\n    tag_223:\n        /* \"#utility.yul\":11255:11335   */\n      tag_224\n        /* \"#utility.yul\":11311:11333   */\n      tag_225\n        /* \"#utility.yul\":11329:11332   */\n      dup6\n        /* \"#utility.yul\":11311:11333   */\n      tag_80\n      jump\t// in\n    tag_225:\n        /* \"#utility.yul\":11301:11309   */\n      dup4\n        /* \"#utility.yul\":11297:11334   */\n      add\n        /* \"#utility.yul\":11284:11295   */\n      dup3\n        /* \"#utility.yul\":11255:11335   */\n      tag_89\n      jump\t// in\n    tag_224:\n        /* \"#utility.yul\":10914:11345   */\n      pop\n      pop\n        /* \"#utility.yul\":10899:11345   */\n    tag_220:\n        /* \"#utility.yul\":10809:11352   */\n      pop\n      pop\n      pop\n      jump\t// out\n        /* \"#utility.yul\":11358:11475   */\n    tag_91:\n        /* \"#utility.yul\":11412:11420   */\n      0x00\n        /* \"#utility.yul\":11462:11467   */\n      dup3\n        /* \"#utility.yul\":11456:11460   */\n      dup3\n        /* \"#utility.yul\":11452:11468   */\n      shr\n        /* \"#utility.yul\":11431:11468   */\n      swap1\n      pop\n        /* \"#utility.yul\":11358:11475   */\n      swap3\n      swap2\n      pop\n      pop\n      jump\t// out\n        /* \"#utility.yul\":11481:11650   */\n    tag_92:\n        /* \"#utility.yul\":11525:11531   */\n      0x00\n        /* \"#utility.yul\":11558:11609   */\n      tag_228\n        /* \"#utility.yul\":11606:11607   */\n      0x00\n        /* \"#utility.yul\":11602:11608   */\n      not\n        /* \"#utility.yul\":11594:11599   */\n      dup5\n        /* \"#utility.yul\":11591:11592   */\n      0x08\n        /* \"#utility.yul\":11587:11600   */\n      mul\n        /* \"#utility.yul\":11558:11609   */\n      tag_91\n      jump\t// in\n    tag_228:\n        /* \"#utility.yul\":11554:11610   */\n      not\n        /* \"#utility.yul\":11639:11643   */\n      dup1\n        /* \"#utility.yul\":11633:11637   */\n      dup4\n        /* \"#utility.yul\":11629:11644   */\n      and\n        /* \"#utility.yul\":11619:11644   */\n      swap2\n      pop\n        /* \"#utility.yul\":11532:11650   */\n      pop\n        /* \"#utility.yul\":11481:11650   */\n      swap3\n      swap2\n      pop\n      pop\n      jump\t// out\n        /* \"#utility.yul\":11655:11950   */\n    tag_93:\n        /* \"#utility.yul\":11731:11735   */\n      0x00\n        /* \"#utility.yul\":11877:11906   */\n      tag_230\n        /* \"#utility.yul\":11902:11905   */\n      dup4\n        /* \"#utility.yul\":11896:11900   */\n      dup4\n        /* \"#utility.yul\":11877:11906   */\n      tag_92\n      jump\t// in\n    tag_230:\n        /* \"#utility.yul\":11869:11906   */\n      swap2\n      pop\n        /* \"#utility.yul\":11939:11942   */\n      dup3\n        /* \"#utility.yul\":11936:11937   */\n      0x02\n        /* \"#utility.yul\":11932:11943   */\n      mul\n        /* \"#utility.yul\":11926:11930   */\n      dup3\n        /* \"#utility.yul\":11923:11944   */\n      or\n        /* \"#utility.yul\":11915:11944   */\n      swap1\n      pop\n        /* \"#utility.yul\":11655:11950   */\n      swap3\n      swap2\n      pop\n      pop\n      jump\t// out\n        /* \"#utility.yul\":11955:13350   */\n    tag_30:\n        /* \"#utility.yul\":12072:12109   */\n      tag_232\n        /* \"#utility.yul\":12105:12108   */\n      dup3\n        /* \"#utility.yul\":12072:12109   */\n      tag_71\n      jump\t// in\n    tag_232:\n        /* \"#utility.yul\":12174:12192   */\n      0xffffffffffffffff\n        /* \"#utility.yul\":12166:12172   */\n      dup2\n        /* \"#utility.yul\":12163:12193   */\n      gt\n        /* \"#utility.yul\":12160:12216   */\n      iszero\n      tag_233\n      jumpi\n        /* \"#utility.yul\":12196:12214   */\n      tag_234\n      tag_61\n      jump\t// in\n    tag_234:\n        /* \"#utility.yul\":12160:12216   */\n    tag_233:\n        /* \"#utility.yul\":12240:12278   */\n      tag_235\n        /* \"#utility.yul\":12272:12276   */\n      dup3\n        /* \"#utility.yul\":12266:12277   */\n      sload\n        /* \"#utility.yul\":12240:12278   */\n      tag_35\n      jump\t// in\n    tag_235:\n        /* \"#utility.yul\":12325:12392   */\n      tag_236\n        /* \"#utility.yul\":12385:12391   */\n      dup3\n        /* \"#utility.yul\":12377:12383   */\n      dup3\n        /* \"#utility.yul\":12371:12375   */\n      dup6\n        /* \"#utility.yul\":12325:12392   */\n      tag_90\n      jump\t// in\n    tag_236:\n        /* \"#utility.yul\":12419:12420   */\n      0x00\n        /* \"#utility.yul\":12443:12447   */\n      0x20\n        /* \"#utility.yul\":12430:12447   */\n      swap1\n      pop\n        /* \"#utility.yul\":12475:12477   */\n      0x1f\n        /* \"#utility.yul\":12467:12473   */\n      dup4\n        /* \"#utility.yul\":12464:12478   */\n      gt\n        /* \"#utility.yul\":12492:12493   */\n      0x01\n        /* \"#utility.yul\":12487:13105   */\n      dup2\n      eq\n      tag_238\n      jumpi\n        /* \"#utility.yul\":13149:13150   */\n      0x00\n        /* \"#utility.yul\":13166:13172   */\n      dup5\n        /* \"#utility.yul\":13163:13240   */\n      iszero\n      tag_239\n      jumpi\n        /* \"#utility.yul\":13215:13224   */\n      dup3\n        /* \"#utility.yul\":13210:13213   */\n      dup8\n        /* \"#utility.yul\":13206:13225   */\n      add\n        /* \"#utility.yul\":13200:13226   */\n      mload\n        /* \"#utility.yul\":13191:13226   */\n      swap1\n      pop\n        /* \"#utility.yul\":13163:13240   */\n    tag_239:\n        /* \"#utility.yul\":13266:13333   */\n      tag_240\n        /* \"#utility.yul\":13326:13332   */\n      dup6\n        /* \"#utility.yul\":13319:13324   */\n      dup3\n        /* \"#utility.yul\":13266:13333   */\n      tag_93\n      jump\t// in\n    tag_240:\n        /* \"#utility.yul\":13260:13264   */\n      dup7\n        /* \"#utility.yul\":13253:13334   */\n      sstore\n        /* \"#utility.yul\":13122:13344   */\n      pop\n        /* \"#utility.yul\":12457:13344   */\n      jump(tag_237)\n        /* \"#utility.yul\":12487:13105   */\n    tag_238:\n        /* \"#utility.yul\":12539:12543   */\n      0x1f\n        /* \"#utility.yul\":12535:12544   */\n      not\n        /* \"#utility.yul\":12527:12533   */\n      dup5\n        /* \"#utility.yul\":12523:12545   */\n      and\n        /* \"#utility.yul\":12573:12610   */\n      tag_241\n        /* \"#utility.yul\":12605:12609   */\n      dup7\n        /* \"#utility.yul\":12573:12610   */\n      tag_79\n      jump\t// in\n    tag_241:\n        /* \"#utility.yul\":12632:12633   */\n      0x00\n        /* \"#utility.yul\":12646:12854   */\n    tag_242:\n        /* \"#utility.yul\":12660:12667   */\n      dup3\n        /* \"#utility.yul\":12657:12658   */\n      dup2\n        /* \"#utility.yul\":12654:12668   */\n      lt\n        /* \"#utility.yul\":12646:12854   */\n      iszero\n      tag_244\n      jumpi\n        /* \"#utility.yul\":12739:12748   */\n      dup5\n        /* \"#utility.yul\":12734:12737   */\n      dup10\n        /* \"#utility.yul\":12730:12749   */\n      add\n        /* \"#utility.yul\":12724:12750   */\n      mload\n        /* \"#utility.yul\":12716:12722   */\n      dup3\n        /* \"#utility.yul\":12709:12751   */\n      sstore\n        /* \"#utility.yul\":12790:12791   */\n      0x01\n        /* \"#utility.yul\":12782:12788   */\n      dup3\n        /* \"#utility.yul\":12778:12792   */\n      add\n        /* \"#utility.yul\":12768:12792   */\n      swap2\n      pop\n        /* \"#utility.yul\":12837:12839   */\n      0x20\n        /* \"#utility.yul\":12826:12835   */\n      dup6\n        /* \"#utility.yul\":12822:12840   */\n      add\n        /* \"#utility.yul\":12809:12840   */\n      swap5\n      pop\n        /* \"#utility.yul\":12683:12687   */\n      0x20\n        /* \"#utility.yul\":12680:12681   */\n      dup2\n        /* \"#utility.yul\":12676:12688   */\n      add\n        /* \"#utility.yul\":12671:12688   */\n      swap1\n      pop\n        /* \"#utility.yul\":12646:12854   */\n      jump(tag_242)\n    tag_244:\n        /* \"#utility.yul\":12882:12888   */\n      dup7\n        /* \"#utility.yul\":12873:12880   */\n      dup4\n        /* \"#utility.yul\":12870:12889   */\n      lt\n        /* \"#utility.yul\":12867:13046   */\n      iszero\n      tag_245\n      jumpi\n        /* \"#utility.yul\":12940:12949   */\n      dup5\n        /* \"#utility.yul\":12935:12938   */\n      dup10\n        /* \"#utility.yul\":12931:12950   */\n      add\n        /* \"#utility.yul\":12925:12951   */\n      mload\n        /* \"#utility.yul\":12983:13031   */\n      tag_246\n        /* \"#utility.yul\":13025:13029   */\n      0x1f\n        /* \"#utility.yul\":13017:13023   */\n      dup10\n        /* \"#utility.yul\":13013:13030   */\n      and\n        /* \"#utility.yul\":13002:13011   */\n      dup3\n        /* \"#utility.yul\":12983:13031   */\n      tag_92\n      jump\t// in\n    tag_246:\n        /* \"#utility.yul\":12975:12981   */\n      dup4\n        /* \"#utility.yul\":12968:13032   */\n      sstore\n        /* \"#utility.yul\":12890:13046   */\n      pop\n        /* \"#utility.yul\":12867:13046   */\n    tag_245:\n        /* \"#utility.yul\":13092:13093   */\n      0x01\n        /* \"#utility.yul\":13088:13089   */\n      0x02\n        /* \"#utility.yul\":13080:13086   */\n      dup9\n        /* \"#utility.yul\":13076:13090   */\n      mul\n        /* \"#utility.yul\":13072:13094   */\n      add\n        /* \"#utility.yul\":13066:13070   */\n      dup9\n        /* \"#utility.yul\":13059:13095   */\n      sstore\n        /* \"#utility.yul\":12494:13105   */\n      pop\n      pop\n      pop\n        /* \"#utility.yul\":12457:13344   */\n    tag_237:\n      pop\n        /* \"#utility.yul\":12047:13350   */\n      pop\n      pop\n      pop\n        /* \"#utility.yul\":11955:13350   */\n      pop\n      pop\n      jump\t// out\n        /* \"#utility.yul\":13356:13522   */\n    tag_94:\n        /* \"#utility.yul\":13496:13514   */\n      0x526573756c74206e6f7420666f756e6400000000000000000000000000000000\n        /* \"#utility.yul\":13492:13493   */\n      0x00\n        /* \"#utility.yul\":13484:13490   */\n      dup3\n        /* \"#utility.yul\":13480:13494   */\n      add\n        /* \"#utility.yul\":13473:13515   */\n      mstore\n        /* \"#utility.yul\":13356:13522   */\n      pop\n      jump\t// out\n        /* \"#utility.yul\":13528:13894   */\n    tag_95:\n        /* \"#utility.yul\":13670:13673   */\n      0x00\n        /* \"#utility.yul\":13691:13758   */\n      tag_249\n        /* \"#utility.yul\":13755:13757   */\n      0x10\n        /* \"#utility.yul\":13750:13753   */\n      dup4\n        /* \"#utility.yul\":13691:13758   */\n      tag_72\n      jump\t// in\n    tag_249:\n        /* \"#utility.yul\":13684:13758   */\n      swap2\n      pop\n        /* \"#utility.yul\":13767:13860   */\n      tag_250\n        /* \"#utility.yul\":13856:13859   */\n      dup3\n        /* \"#utility.yul\":13767:13860   */\n      tag_94\n      jump\t// in\n    tag_250:\n        /* \"#utility.yul\":13885:13887   */\n      0x20\n        /* \"#utility.yul\":13880:13883   */\n      dup3\n        /* \"#utility.yul\":13876:13888   */\n      add\n        /* \"#utility.yul\":13869:13888   */\n      swap1\n      pop\n        /* \"#utility.yul\":13528:13894   */\n      swap2\n      swap1\n      pop\n      jump\t// out\n        /* \"#utility.yul\":13900:14319   */\n    tag_44:\n        /* \"#utility.yul\":14066:14070   */\n      0x00\n        /* \"#utility.yul\":14104:14106   */\n      0x20\n        /* \"#utility.yul\":14093:14102   */\n      dup3\n        /* \"#utility.yul\":14089:14107   */\n      add\n        /* \"#utility.yul\":14081:14107   */\n      swap1\n      pop\n        /* \"#utility.yul\":14153:14162   */\n      dup2\n        /* \"#utility.yul\":14147:14151   */\n      dup2\n        /* \"#utility.yul\":14143:14163   */\n      sub\n        /* \"#utility.yul\":14139:14140   */\n      0x00\n        /* \"#utility.yul\":14128:14137   */\n      dup4\n        /* \"#utility.yul\":14124:14141   */\n      add\n        /* \"#utility.yul\":14117:14164   */\n      mstore\n        /* \"#utility.yul\":14181:14312   */\n      tag_252\n        /* \"#utility.yul\":14307:14311   */\n      dup2\n        /* \"#utility.yul\":14181:14312   */\n      tag_95\n      jump\t// in\n    tag_252:\n        /* \"#utility.yul\":14173:14312   */\n      swap1\n      pop\n        /* \"#utility.yul\":13900:14319   */\n      swap2\n      swap1\n      pop\n      jump\t// out\n\n    auxdata: 0xa2646970667358221220715b3df060f76571705bc909985c07f392f05e87a3b39dc7d7d47a70239468fa64736f6c634300081e0033\n}\n",
				"bytecode": {
					"linkReferences": {},
					"object": "6080604052348015600f57600080fd5b50610c898061001f6000396000f3fe608060405234801561001057600080fd5b506004361061004c5760003560e01c806303803e411461005157806361afcc7b1461006d5780637d60fd391461009e578063b6540b64146100cf575b600080fd5b61006b60048036038101906100669190610629565b6100eb565b005b610087600480360381019061008291906106c8565b610181565b60405161009592919061079f565b60405180910390f35b6100b860048036038101906100b391906107cf565b61025c565b6040516100c692919061079f565b60405180910390f35b6100e960048036038101906100e4919061082b565b6103db565b005b60405180606001604052808381526020018281526020016001151581525060018560405161011991906108f2565b90815260200160405180910390206000858152602001908152602001600020600082015181600001908161014d9190610b15565b506020820151816001015560408201518160020160006101000a81548160ff02191690831515021790555090505050505050565b60606000808360405161019491906108f2565b90815260200160405180910390206000016000846040516101b591906108f2565b9081526020016040518091039020600101548180546101d390610938565b80601f01602080910402602001604051908101604052809291908181526020018280546101ff90610938565b801561024c5780601f106102215761010080835404028352916020019161024c565b820191906000526020600020905b81548152906001019060200180831161022f57829003601f168201915b5050505050915091509150915091565b6060600060018460405161027091906108f2565b9081526020016040518091039020600084815260200190815260200160002060020160009054906101000a900460ff166102df576040517f08c379a00000000000000000000000000000000000000000000000000000000081526004016102d690610c33565b60405180910390fd5b6001846040516102ef91906108f2565b9081526020016040518091039020600084815260200190815260200160002060000160018560405161032191906108f2565b908152602001604051809103902060008581526020019081526020016000206001015481805461035090610938565b80601f016020809104026020016040519081016040528092919081815260200182805461037c90610938565b80156103c95780601f1061039e576101008083540402835291602001916103c9565b820191906000526020600020905b8154815290600101906020018083116103ac57829003601f168201915b50505050509150915091509250929050565b60405180606001604052808381526020018281526020013373ffffffffffffffffffffffffffffffffffffffff1681525060008460405161041c91906108f2565b9081526020016040518091039020600082015181600001908161043f9190610b15565b506020820151816001015560408201518160020160006101000a81548173ffffffffffffffffffffffffffffffffffffffff021916908373ffffffffffffffffffffffffffffffffffffffff160217905550905050505050565b6000604051905090565b600080fd5b600080fd5b600080fd5b600080fd5b6000601f19601f8301169050919050565b7f4e487b7100000000000000000000000000000000000000000000000000000000600052604160045260246000fd5b610500826104b7565b810181811067ffffffffffffffff8211171561051f5761051e6104c8565b5b80604052505050565b6000610532610499565b905061053e82826104f7565b919050565b600067ffffffffffffffff82111561055e5761055d6104c8565b5b610567826104b7565b9050602081019050919050565b82818337600083830152505050565b600061059661059184610543565b610528565b9050828152602081018484840111156105b2576105b16104b2565b5b6105bd848285610574565b509392505050565b600082601f8301126105da576105d96104ad565b5b81356105ea848260208601610583565b91505092915050565b6000819050919050565b610606816105f3565b811461061157600080fd5b50565b600081359050610623816105fd565b92915050565b60008060008060808587031215610643576106426104a3565b5b600085013567ffffffffffffffff811115610661576106606104a8565b5b61066d878288016105c5565b945050602061067e87828801610614565b935050604085013567ffffffffffffffff81111561069f5761069e6104a8565b5b6106ab878288016105c5565b92505060606106bc87828801610614565b91505092959194509250565b6000602082840312156106de576106dd6104a3565b5b600082013567ffffffffffffffff8111156106fc576106fb6104a8565b5b610708848285016105c5565b91505092915050565b600081519050919050565b600082825260208201905092915050565b60005b8381101561074b578082015181840152602081019050610730565b60008484015250505050565b600061076282610711565b61076c818561071c565b935061077c81856020860161072d565b610785816104b7565b840191505092915050565b610799816105f3565b82525050565b600060408201905081810360008301526107b98185610757565b90506107c86020830184610790565b9392505050565b600080604083850312156107e6576107e56104a3565b5b600083013567ffffffffffffffff811115610804576108036104a8565b5b610810858286016105c5565b925050602061082185828601610614565b9150509250929050565b600080600060608486031215610844576108436104a3565b5b600084013567ffffffffffffffff811115610862576108616104a8565b5b61086e868287016105c5565b935050602084013567ffffffffffffffff81111561088f5761088e6104a8565b5b61089b868287016105c5565b92505060406108ac86828701610614565b9150509250925092565b600081905092915050565b60006108cc82610711565b6108d681856108b6565b93506108e681856020860161072d565b80840191505092915050565b60006108fe82846108c1565b915081905092915050565b7f4e487b7100000000000000000000000000000000000000000000000000000000600052602260045260246000fd5b6000600282049050600182168061095057607f821691505b60208210810361096357610962610909565b5b50919050565b60008190508160005260206000209050919050565b60006020601f8301049050919050565b600082821b905092915050565b6000600883026109cb7fffffffffffffffffffffffffffffffffffffffffffffffffffffffffffffffff8261098e565b6109d5868361098e565b95508019841693508086168417925050509392505050565b6000819050919050565b6000610a12610a0d610a08846105f3565b6109ed565b6105f3565b9050919050565b6000819050919050565b610a2c836109f7565b610a40610a3882610a19565b84845461099b565b825550505050565b600090565b610a55610a48565b610a60818484610a23565b505050565b5b81811015610a8457610a79600082610a4d565b600181019050610a66565b5050565b601f821115610ac957610a9a81610969565b610aa38461097e565b81016020851015610ab2578190505b610ac6610abe8561097e565b830182610a65565b50505b505050565b600082821c905092915050565b6000610aec60001984600802610ace565b1980831691505092915050565b6000610b058383610adb565b9150826002028217905092915050565b610b1e82610711565b67ffffffffffffffff811115610b3757610b366104c8565b5b610b418254610938565b610b4c828285610a88565b600060209050601f831160018114610b7f5760008415610b6d578287015190505b610b778582610af9565b865550610bdf565b601f198416610b8d86610969565b60005b82811015610bb557848901518255600182019150602085019450602081019050610b90565b86831015610bd25784890151610bce601f891682610adb565b8355505b6001600288020188555050505b505050505050565b7f526573756c74206e6f7420666f756e6400000000000000000000000000000000600082015250565b6000610c1d60108361071c565b9150610c2882610be7565b602082019050919050565b60006020820190508181036000830152610c4c81610c10565b905091905056fea2646970667358221220715b3df060f76571705bc909985c07f392f05e87a3b39dc7d7d47a70239468fa64736f6c634300081e0033",
					"opcodes": "PUSH1 0x80 PUSH1 0x40 MSTORE CALLVALUE DUP1 ISZERO PUSH1 0xF JUMPI PUSH1 0x0 DUP1 REVERT JUMPDEST POP PUSH2 0xC89 DUP1 PUSH2 0x1F PUSH1 0x0 CODECOPY PUSH1 0x0 RETURN INVALID PUSH1 0x80 PUSH1 0x40 MSTORE CALLVALUE DUP1 ISZERO PUSH2 0x10 JUMPI PUSH1 0x0 DUP1 REVERT JUMPDEST POP PUSH1 0x4 CALLDATASIZE LT PUSH2 0x4C JUMPI PUSH1 0x0 CALLDATALOAD PUSH1 0xE0 SHR DUP1 PUSH4 0x3803E41 EQ PUSH2 0x51 JUMPI DUP1 PUSH4 0x61AFCC7B EQ PUSH2 0x6D JUMPI DUP1 PUSH4 0x7D60FD39 EQ PUSH2 0x9E JUMPI DUP1 PUSH4 0xB6540B64 EQ PUSH2 0xCF JUMPI JUMPDEST PUSH1 0x0 DUP1 REVERT JUMPDEST PUSH2 0x6B PUSH1 0x4 DUP1 CALLDATASIZE SUB DUP2 ADD SWAP1 PUSH2 0x66 SWAP2 SWAP1 PUSH2 0x629 JUMP JUMPDEST PUSH2 0xEB JUMP JUMPDEST STOP JUMPDEST PUSH2 0x87 PUSH1 0x4 DUP1 CALLDATASIZE SUB DUP2 ADD SWAP1 PUSH2 0x82 SWAP2 SWAP1 PUSH2 0x6C8 JUMP JUMPDEST PUSH2 0x181 JUMP JUMPDEST PUSH1 0x40 MLOAD PUSH2 0x95 SWAP3 SWAP2 SWAP1 PUSH2 0x79F JUMP JUMPDEST PUSH1 0x40 MLOAD DUP1 SWAP2 SUB SWAP1 RETURN JUMPDEST PUSH2 0xB8 PUSH1 0x4 DUP1 CALLDATASIZE SUB DUP2 ADD SWAP1 PUSH2 0xB3 SWAP2 SWAP1 PUSH2 0x7CF JUMP JUMPDEST PUSH2 0x25C JUMP JUMPDEST PUSH1 0x40 MLOAD PUSH2 0xC6 SWAP3 SWAP2 SWAP1 PUSH2 0x79F JUMP JUMPDEST PUSH1 0x40 MLOAD DUP1 SWAP2 SUB SWAP1 RETURN JUMPDEST PUSH2 0xE9 PUSH1 0x4 DUP1 CALLDATASIZE SUB DUP2 ADD SWAP1 PUSH2 0xE4 SWAP2 SWAP1 PUSH2 0x82B JUMP JUMPDEST PUSH2 0x3DB JUMP JUMPDEST STOP JUMPDEST PUSH1 0x40 MLOAD DUP1 PUSH1 0x60 ADD PUSH1 0x40 MSTORE DUP1 DUP4 DUP2 MSTORE PUSH1 0x20 ADD DUP3 DUP2 MSTORE PUSH1 0x20 ADD PUSH1 0x1 ISZERO ISZERO DUP2 MSTORE POP PUSH1 0x1 DUP6 PUSH1 0x40 MLOAD PUSH2 0x119 SWAP2 SWAP1 PUSH2 0x8F2 JUMP JUMPDEST SWAP1 DUP2 MSTORE PUSH1 0x20 ADD PUSH1 0x40 MLOAD DUP1 SWAP2 SUB SWAP1 KECCAK256 PUSH1 0x0 DUP6 DUP2 MSTORE PUSH1 0x20 ADD SWAP1 DUP2 MSTORE PUSH1 0x20 ADD PUSH1 0x0 KECCAK256 PUSH1 0x0 DUP3 ADD MLOAD DUP2 PUSH1 0x0 ADD SWAP1 DUP2 PUSH2 0x14D SWAP2 SWAP1 PUSH2 0xB15 JUMP JUMPDEST POP PUSH1 0x20 DUP3 ADD MLOAD DUP2 PUSH1 0x1 ADD SSTORE PUSH1 0x40 DUP3 ADD MLOAD DUP2 PUSH1 0x2 ADD PUSH1 0x0 PUSH2 0x100 EXP DUP2 SLOAD DUP2 PUSH1 0xFF MUL NOT AND SWAP1 DUP4 ISZERO ISZERO MUL OR SWAP1 SSTORE POP SWAP1 POP POP POP POP POP POP JUMP JUMPDEST PUSH1 0x60 PUSH1 0x0 DUP1 DUP4 PUSH1 0x40 MLOAD PUSH2 0x194 SWAP2 SWAP1 PUSH2 0x8F2 JUMP JUMPDEST SWAP1 DUP2 MSTORE PUSH1 0x20 ADD PUSH1 0x40 MLOAD DUP1 SWAP2 SUB SWAP1 KECCAK256 PUSH1 0x0 ADD PUSH1 0x0 DUP5 PUSH1 0x40 MLOAD PUSH2 0x1B5 SWAP2 SWAP1 PUSH2 0x8F2 JUMP JUMPDEST SWAP1 DUP2 MSTORE PUSH1 0x20 ADD PUSH1 0x40 MLOAD DUP1 SWAP2 SUB SWAP1 KECCAK256 PUSH1 0x1 ADD SLOAD DUP2 DUP1 SLOAD PUSH2 0x1D3 SWAP1 PUSH2 0x938 JUMP JUMPDEST DUP1 PUSH1 0x1F ADD PUSH1 0x20 DUP1 SWAP2 DIV MUL PUSH1 0x20 ADD PUSH1 0x40 MLOAD SWAP1 DUP2 ADD PUSH1 0x40 MSTORE DUP1 SWAP3 SWAP2 SWAP1 DUP2 DUP2 MSTORE PUSH1 0x20 ADD DUP3 DUP1 SLOAD PUSH2 0x1FF SWAP1 PUSH2 0x938 JUMP JUMPDEST DUP1 ISZERO PUSH2 0x24C JUMPI DUP1 PUSH1 0x1F LT PUSH2 0x221 JUMPI PUSH2 0x100 DUP1 DUP4 SLOAD DIV MUL DUP4 MSTORE SWAP2 PUSH1 0x20 ADD SWAP2 PUSH2 0x24C JUMP JUMPDEST DUP3 ADD SWAP2 SWAP1 PUSH1 0x0 MSTORE PUSH1 0x20 PUSH1 0x0 KECCAK256 SWAP1 JUMPDEST DUP2 SLOAD DUP2 MSTORE SWAP1 PUSH1 0x1 ADD SWAP1 PUSH1 0x20 ADD DUP1 DUP4 GT PUSH2 0x22F JUMPI DUP3 SWAP1 SUB PUSH1 0x1F AND DUP3 ADD SWAP2 JUMPDEST POP POP POP POP POP SWAP2 POP SWAP2 POP SWAP2 POP SWAP2 POP SWAP2 JUMP JUMPDEST PUSH1 0x60 PUSH1 0x0 PUSH1 0x1 DUP5 PUSH1 0x40 MLOAD PUSH2 0x270 SWAP2 SWAP1 PUSH2 0x8F2 JUMP JUMPDEST SWAP1 DUP2 MSTORE PUSH1 0x20 ADD PUSH1 0x40 MLOAD DUP1 SWAP2 SUB SWAP1 KECCAK256 PUSH1 0x0 DUP5 DUP2 MSTORE PUSH1 0x20 ADD SWAP1 DUP2 MSTORE PUSH1 0x20 ADD PUSH1 0x0 KECCAK256 PUSH1 0x2 ADD PUSH1 0x0 SWAP1 SLOAD SWAP1 PUSH2 0x100 EXP SWAP1 DIV PUSH1 0xFF AND PUSH2 0x2DF JUMPI PUSH1 0x40 MLOAD PUSH32 0x8C379A000000000000000000000000000000000000000000000000000000000 DUP2 MSTORE PUSH1 0x4 ADD PUSH2 0x2D6 SWAP1 PUSH2 0xC33 JUMP JUMPDEST PUSH1 0x40 MLOAD DUP1 SWAP2 SUB SWAP1 REVERT JUMPDEST PUSH1 0x1 DUP5 PUSH1 0x40 MLOAD PUSH2 0x2EF SWAP2 SWAP1 PUSH2 0x8F2 JUMP JUMPDEST SWAP1 DUP2 MSTORE PUSH1 0x20 ADD PUSH1 0x40 MLOAD DUP1 SWAP2 SUB SWAP1 KECCAK256 PUSH1 0x0 DUP5 DUP2 MSTORE PUSH1 0x20 ADD SWAP1 DUP2 MSTORE PUSH1 0x20 ADD PUSH1 0x0 KECCAK256 PUSH1 0x0 ADD PUSH1 0x1 DUP6 PUSH1 0x40 MLOAD PUSH2 0x321 SWAP2 SWAP1 PUSH2 0x8F2 JUMP JUMPDEST SWAP1 DUP2 MSTORE PUSH1 0x20 ADD PUSH1 0x40 MLOAD DUP1 SWAP2 SUB SWAP1 KECCAK256 PUSH1 0x0 DUP6 DUP2 MSTORE PUSH1 0x20 ADD SWAP1 DUP2 MSTORE PUSH1 0x20 ADD PUSH1 0x0 KECCAK256 PUSH1 0x1 ADD SLOAD DUP2 DUP1 SLOAD PUSH2 0x350 SWAP1 PUSH2 0x938 JUMP JUMPDEST DUP1 PUSH1 0x1F ADD PUSH1 0x20 DUP1 SWAP2 DIV MUL PUSH1 0x20 ADD PUSH1 0x40 MLOAD SWAP1 DUP2 ADD PUSH1 0x40 MSTORE DUP1 SWAP3 SWAP2 SWAP1 DUP2 DUP2 MSTORE PUSH1 0x20 ADD DUP3 DUP1 SLOAD PUSH2 0x37C SWAP1 PUSH2 0x938 JUMP JUMPDEST DUP1 ISZERO PUSH2 0x3C9 JUMPI DUP1 PUSH1 0x1F LT PUSH2 0x39E JUMPI PUSH2 0x100 DUP1 DUP4 SLOAD DIV MUL DUP4 MSTORE SWAP2 PUSH1 0x20 ADD SWAP2 PUSH2 0x3C9 JUMP JUMPDEST DUP3 ADD SWAP2 SWAP1 PUSH1 0x0 MSTORE PUSH1 0x20 PUSH1 0x0 KECCAK256 SWAP1 JUMPDEST DUP2 SLOAD DUP2 MSTORE SWAP1 PUSH1 0x1 ADD SWAP1 PUSH1 0x20 ADD DUP1 DUP4 GT PUSH2 0x3AC JUMPI DUP3 SWAP1 SUB PUSH1 0x1F AND DUP3 ADD SWAP2 JUMPDEST POP POP POP POP POP SWAP2 POP SWAP2 POP SWAP2 POP SWAP3 POP SWAP3 SWAP1 POP JUMP JUMPDEST PUSH1 0x40 MLOAD DUP1 PUSH1 0x60 ADD PUSH1 0x40 MSTORE DUP1 DUP4 DUP2 MSTORE PUSH1 0x20 ADD DUP3 DUP2 MSTORE PUSH1 0x20 ADD CALLER PUSH20 0xFFFFFFFFFFFFFFFFFFFFFFFFFFFFFFFFFFFFFFFF AND DUP2 MSTORE POP PUSH1 0x0 DUP5 PUSH1 0x40 MLOAD PUSH2 0x41C SWAP2 SWAP1 PUSH2 0x8F2 JUMP JUMPDEST SWAP1 DUP2 MSTORE PUSH1 0x20 ADD PUSH1 0x40 MLOAD DUP1 SWAP2 SUB SWAP1 KECCAK256 PUSH1 0x0 DUP3 ADD MLOAD DUP2 PUSH1 0x0 ADD SWAP1 DUP2 PUSH2 0x43F SWAP2 SWAP1 PUSH2 0xB15 JUMP JUMPDEST POP PUSH1 0x20 DUP3 ADD MLOAD DUP2 PUSH1 0x1 ADD SSTORE PUSH1 0x40 DUP3 ADD MLOAD DUP2 PUSH1 0x2 ADD PUSH1 0x0 PUSH2 0x100 EXP DUP2 SLOAD DUP2 PUSH20 0xFFFFFFFFFFFFFFFFFFFFFFFFFFFFFFFFFFFFFFFF MUL NOT AND SWAP1 DUP4 PUSH20 0xFFFFFFFFFFFFFFFFFFFFFFFFFFFFFFFFFFFFFFFF AND MUL OR SWAP1 SSTORE POP SWAP1 POP POP POP POP POP JUMP JUMPDEST PUSH1 0x0 PUSH1 0x40 MLOAD SWAP1 POP SWAP1 JUMP JUMPDEST PUSH1 0x0 DUP1 REVERT JUMPDEST PUSH1 0x0 DUP1 REVERT JUMPDEST PUSH1 0x0 DUP1 REVERT JUMPDEST PUSH1 0x0 DUP1 REVERT JUMPDEST PUSH1 0x0 PUSH1 0x1F NOT PUSH1 0x1F DUP4 ADD AND SWAP1 POP SWAP2 SWAP1 POP JUMP JUMPDEST PUSH32 0x4E487B7100000000000000000000000000000000000000000000000000000000 PUSH1 0x0 MSTORE PUSH1 0x41 PUSH1 0x4 MSTORE PUSH1 0x24 PUSH1 0x0 REVERT JUMPDEST PUSH2 0x500 DUP3 PUSH2 0x4B7 JUMP JUMPDEST DUP2 ADD DUP2 DUP2 LT PUSH8 0xFFFFFFFFFFFFFFFF DUP3 GT OR ISZERO PUSH2 0x51F JUMPI PUSH2 0x51E PUSH2 0x4C8 JUMP JUMPDEST JUMPDEST DUP1 PUSH1 0x40 MSTORE POP POP POP JUMP JUMPDEST PUSH1 0x0 PUSH2 0x532 PUSH2 0x499 JUMP JUMPDEST SWAP1 POP PUSH2 0x53E DUP3 DUP3 PUSH2 0x4F7 JUMP JUMPDEST SWAP2 SWAP1 POP JUMP JUMPDEST PUSH1 0x0 PUSH8 0xFFFFFFFFFFFFFFFF DUP3 GT ISZERO PUSH2 0x55E JUMPI PUSH2 0x55D PUSH2 0x4C8 JUMP JUMPDEST JUMPDEST PUSH2 0x567 DUP3 PUSH2 0x4B7 JUMP JUMPDEST SWAP1 POP PUSH1 0x20 DUP2 ADD SWAP1 POP SWAP2 SWAP1 POP JUMP JUMPDEST DUP3 DUP2 DUP4 CALLDATACOPY PUSH1 0x0 DUP4 DUP4 ADD MSTORE POP POP POP JUMP JUMPDEST PUSH1 0x0 PUSH2 0x596 PUSH2 0x591 DUP5 PUSH2 0x543 JUMP JUMPDEST PUSH2 0x528 JUMP JUMPDEST SWAP1 POP DUP3 DUP2 MSTORE PUSH1 0x20 DUP2 ADD DUP5 DUP5 DUP5 ADD GT ISZERO PUSH2 0x5B2 JUMPI PUSH2 0x5B1 PUSH2 0x4B2 JUMP JUMPDEST JUMPDEST PUSH2 0x5BD DUP5 DUP3 DUP6 PUSH2 0x574 JUMP JUMPDEST POP SWAP4 SWAP3 POP POP POP JUMP JUMPDEST PUSH1 0x0 DUP3 PUSH1 0x1F DUP4 ADD SLT PUSH2 0x5DA JUMPI PUSH2 0x5D9 PUSH2 0x4AD JUMP JUMPDEST JUMPDEST DUP2 CALLDATALOAD PUSH2 0x5EA DUP5 DUP3 PUSH1 0x20 DUP7 ADD PUSH2 0x583 JUMP JUMPDEST SWAP2 POP POP SWAP3 SWAP2 POP POP JUMP JUMPDEST PUSH1 0x0 DUP2 SWAP1 POP SWAP2 SWAP1 POP JUMP JUMPDEST PUSH2 0x606 DUP2 PUSH2 0x5F3 JUMP JUMPDEST DUP2 EQ PUSH2 0x611 JUMPI PUSH1 0x0 DUP1 REVERT JUMPDEST POP JUMP JUMPDEST PUSH1 0x0 DUP2 CALLDATALOAD SWAP1 POP PUSH2 0x623 DUP2 PUSH2 0x5FD JUMP JUMPDEST SWAP3 SWAP2 POP POP JUMP JUMPDEST PUSH1 0x0 DUP1 PUSH1 0x0 DUP1 PUSH1 0x80 DUP6 DUP8 SUB SLT ISZERO PUSH2 0x643 JUMPI PUSH2 0x642 PUSH2 0x4A3 JUMP JUMPDEST JUMPDEST PUSH1 0x0 DUP6 ADD CALLDATALOAD PUSH8 0xFFFFFFFFFFFFFFFF DUP2 GT ISZERO PUSH2 0x661 JUMPI PUSH2 0x660 PUSH2 0x4A8 JUMP JUMPDEST JUMPDEST PUSH2 0x66D DUP8 DUP3 DUP9 ADD PUSH2 0x5C5 JUMP JUMPDEST SWAP5 POP POP PUSH1 0x20 PUSH2 0x67E DUP8 DUP3 DUP9 ADD PUSH2 0x614 JUMP JUMPDEST SWAP4 POP POP PUSH1 0x40 DUP6 ADD CALLDATALOAD PUSH8 0xFFFFFFFFFFFFFFFF DUP2 GT ISZERO PUSH2 0x69F JUMPI PUSH2 0x69E PUSH2 0x4A8 JUMP JUMPDEST JUMPDEST PUSH2 0x6AB DUP8 DUP3 DUP9 ADD PUSH2 0x5C5 JUMP JUMPDEST SWAP3 POP POP PUSH1 0x60 PUSH2 0x6BC DUP8 DUP3 DUP9 ADD PUSH2 0x614 JUMP JUMPDEST SWAP2 POP POP SWAP3 SWAP6 SWAP2 SWAP5 POP SWAP3 POP JUMP JUMPDEST PUSH1 0x0 PUSH1 0x20 DUP3 DUP5 SUB SLT ISZERO PUSH2 0x6DE JUMPI PUSH2 0x6DD PUSH2 0x4A3 JUMP JUMPDEST JUMPDEST PUSH1 0x0 DUP3 ADD CALLDATALOAD PUSH8 0xFFFFFFFFFFFFFFFF DUP2 GT ISZERO PUSH2 0x6FC JUMPI PUSH2 0x6FB PUSH2 0x4A8 JUMP JUMPDEST JUMPDEST PUSH2 0x708 DUP5 DUP3 DUP6 ADD PUSH2 0x5C5 JUMP JUMPDEST SWAP2 POP POP SWAP3 SWAP2 POP POP JUMP JUMPDEST PUSH1 0x0 DUP2 MLOAD SWAP1 POP SWAP2 SWAP1 POP JUMP JUMPDEST PUSH1 0x0 DUP3 DUP3 MSTORE PUSH1 0x20 DUP3 ADD SWAP1 POP SWAP3 SWAP2 POP POP JUMP JUMPDEST PUSH1 0x0 JUMPDEST DUP4 DUP2 LT ISZERO PUSH2 0x74B JUMPI DUP1 DUP3 ADD MLOAD DUP2 DUP5 ADD MSTORE PUSH1 0x20 DUP2 ADD SWAP1 POP PUSH2 0x730 JUMP JUMPDEST PUSH1 0x0 DUP5 DUP5 ADD MSTORE POP POP POP POP JUMP JUMPDEST PUSH1 0x0 PUSH2 0x762 DUP3 PUSH2 0x711 JUMP JUMPDEST PUSH2 0x76C DUP2 DUP6 PUSH2 0x71C JUMP JUMPDEST SWAP4 POP PUSH2 0x77C DUP2 DUP6 PUSH1 0x20 DUP7 ADD PUSH2 0x72D JUMP JUMPDEST PUSH2 0x785 DUP2 PUSH2 0x4B7 JUMP JUMPDEST DUP5 ADD SWAP2 POP POP SWAP3 SWAP2 POP POP JUMP JUMPDEST PUSH2 0x799 DUP2 PUSH2 0x5F3 JUMP JUMPDEST DUP3 MSTORE POP POP JUMP JUMPDEST PUSH1 0x0 PUSH1 0x40 DUP3 ADD SWAP1 POP DUP2 DUP2 SUB PUSH1 0x0 DUP4 ADD MSTORE PUSH2 0x7B9 DUP2 DUP6 PUSH2 0x757 JUMP JUMPDEST SWAP1 POP PUSH2 0x7C8 PUSH1 0x20 DUP4 ADD DUP5 PUSH2 0x790 JUMP JUMPDEST SWAP4 SWAP3 POP POP POP JUMP JUMPDEST PUSH1 0x0 DUP1 PUSH1 0x40 DUP4 DUP6 SUB SLT ISZERO PUSH2 0x7E6 JUMPI PUSH2 0x7E5 PUSH2 0x4A3 JUMP JUMPDEST JUMPDEST PUSH1 0x0 DUP4 ADD CALLDATALOAD PUSH8 0xFFFFFFFFFFFFFFFF DUP2 GT ISZERO PUSH2 0x804 JUMPI PUSH2 0x803 PUSH2 0x4A8 JUMP JUMPDEST JUMPDEST PUSH2 0x810 DUP6 DUP3 DUP7 ADD PUSH2 0x5C5 JUMP JUMPDEST SWAP3 POP POP PUSH1 0x20 PUSH2 0x821 DUP6 DUP3 DUP7 ADD PUSH2 0x614 JUMP JUMPDEST SWAP2 POP POP SWAP3 POP SWAP3 SWAP1 POP JUMP JUMPDEST PUSH1 0x0 DUP1 PUSH1 0x0 PUSH1 0x60 DUP5 DUP7 SUB SLT ISZERO PUSH2 0x844 JUMPI PUSH2 0x843 PUSH2 0x4A3 JUMP JUMPDEST JUMPDEST PUSH1 0x0 DUP5 ADD CALLDATALOAD PUSH8 0xFFFFFFFFFFFFFFFF DUP2 GT ISZERO PUSH2 0x862 JUMPI PUSH2 0x861 PUSH2 0x4A8 JUMP JUMPDEST JUMPDEST PUSH2 0x86E DUP7 DUP3 DUP8 ADD PUSH2 0x5C5 JUMP JUMPDEST SWAP4 POP POP PUSH1 0x20 DUP5 ADD CALLDATALOAD PUSH8 0xFFFFFFFFFFFFFFFF DUP2 GT ISZERO PUSH2 0x88F JUMPI PUSH2 0x88E PUSH2 0x4A8 JUMP JUMPDEST JUMPDEST PUSH2 0x89B DUP7 DUP3 DUP8 ADD PUSH2 0x5C5 JUMP JUMPDEST SWAP3 POP POP PUSH1 0x40 PUSH2 0x8AC DUP7 DUP3 DUP8 ADD PUSH2 0x614 JUMP JUMPDEST SWAP2 POP POP SWAP3 POP SWAP3 POP SWAP3 JUMP JUMPDEST PUSH1 0x0 DUP2 SWAP1 POP SWAP3 SWAP2 POP POP JUMP JUMPDEST PUSH1 0x0 PUSH2 0x8CC DUP3 PUSH2 0x711 JUMP JUMPDEST PUSH2 0x8D6 DUP2 DUP6 PUSH2 0x8B6 JUMP JUMPDEST SWAP4 POP PUSH2 0x8E6 DUP2 DUP6 PUSH1 0x20 DUP7 ADD PUSH2 0x72D JUMP JUMPDEST DUP1 DUP5 ADD SWAP2 POP POP SWAP3 SWAP2 POP POP JUMP JUMPDEST PUSH1 0x0 PUSH2 0x8FE DUP3 DUP5 PUSH2 0x8C1 JUMP JUMPDEST SWAP2 POP DUP2 SWAP1 POP SWAP3 SWAP2 POP POP JUMP JUMPDEST PUSH32 0x4E487B7100000000000000000000000000000000000000000000000000000000 PUSH1 0x0 MSTORE PUSH1 0x22 PUSH1 0x4 MSTORE PUSH1 0x24 PUSH1 0x0 REVERT JUMPDEST PUSH1 0x0 PUSH1 0x2 DUP3 DIV SWAP1 POP PUSH1 0x1 DUP3 AND DUP1 PUSH2 0x950 JUMPI PUSH1 0x7F DUP3 AND SWAP2 POP JUMPDEST PUSH1 0x20 DUP3 LT DUP2 SUB PUSH2 0x963 JUMPI PUSH2 0x962 PUSH2 0x909 JUMP JUMPDEST JUMPDEST POP SWAP2 SWAP1 POP JUMP JUMPDEST PUSH1 0x0 DUP2 SWAP1 POP DUP2 PUSH1 0x0 MSTORE PUSH1 0x20 PUSH1 0x0 KECCAK256 SWAP1 POP SWAP2 SWAP1 POP JUMP JUMPDEST PUSH1 0x0 PUSH1 0x20 PUSH1 0x1F DUP4 ADD DIV SWAP1 POP SWAP2 SWAP1 POP JUMP JUMPDEST PUSH1 0x0 DUP3 DUP3 SHL SWAP1 POP SWAP3 SWAP2 POP POP JUMP JUMPDEST PUSH1 0x0 PUSH1 0x8 DUP4 MUL PUSH2 0x9CB PUSH32 0xFFFFFFFFFFFFFFFFFFFFFFFFFFFFFFFFFFFFFFFFFFFFFFFFFFFFFFFFFFFFFFFF DUP3 PUSH2 0x98E JUMP JUMPDEST PUSH2 0x9D5 DUP7 DUP4 PUSH2 0x98E JUMP JUMPDEST SWAP6 POP DUP1 NOT DUP5 AND SWAP4 POP DUP1 DUP7 AND DUP5 OR SWAP3 POP POP POP SWAP4 SWAP3 POP POP POP JUMP JUMPDEST PUSH1 0x0 DUP2 SWAP1 POP SWAP2 SWAP1 POP JUMP JUMPDEST PUSH1 0x0 PUSH2 0xA12 PUSH2 0xA0D PUSH2 0xA08 DUP5 PUSH2 0x5F3 JUMP JUMPDEST PUSH2 0x9ED JUMP JUMPDEST PUSH2 0x5F3 JUMP JUMPDEST SWAP1 POP SWAP2 SWAP1 POP JUMP JUMPDEST PUSH1 0x0 DUP2 SWAP1 POP SWAP2 SWAP1 POP JUMP JUMPDEST PUSH2 0xA2C DUP4 PUSH2 0x9F7 JUMP JUMPDEST PUSH2 0xA40 PUSH2 0xA38 DUP3 PUSH2 0xA19 JUMP JUMPDEST DUP5 DUP5 SLOAD PUSH2 0x99B JUMP JUMPDEST DUP3 SSTORE POP POP POP POP JUMP JUMPDEST PUSH1 0x0 SWAP1 JUMP JUMPDEST PUSH2 0xA55 PUSH2 0xA48 JUMP JUMPDEST PUSH2 0xA60 DUP2 DUP5 DUP5 PUSH2 0xA23 JUMP JUMPDEST POP POP POP JUMP JUMPDEST JUMPDEST DUP2 DUP2 LT ISZERO PUSH2 0xA84 JUMPI PUSH2 0xA79 PUSH1 0x0 DUP3 PUSH2 0xA4D JUMP JUMPDEST PUSH1 0x1 DUP2 ADD SWAP1 POP PUSH2 0xA66 JUMP JUMPDEST POP POP JUMP JUMPDEST PUSH1 0x1F DUP3 GT ISZERO PUSH2 0xAC9 JUMPI PUSH2 0xA9A DUP2 PUSH2 0x969 JUMP JUMPDEST PUSH2 0xAA3 DUP5 PUSH2 0x97E JUMP JUMPDEST DUP2 ADD PUSH1 0x20 DUP6 LT ISZERO PUSH2 0xAB2 JUMPI DUP2 SWAP1 POP JUMPDEST PUSH2 0xAC6 PUSH2 0xABE DUP6 PUSH2 0x97E JUMP JUMPDEST DUP4 ADD DUP3 PUSH2 0xA65 JUMP JUMPDEST POP POP JUMPDEST POP POP POP JUMP JUMPDEST PUSH1 0x0 DUP3 DUP3 SHR SWAP1 POP SWAP3 SWAP2 POP POP JUMP JUMPDEST PUSH1 0x0 PUSH2 0xAEC PUSH1 0x0 NOT DUP5 PUSH1 0x8 MUL PUSH2 0xACE JUMP JUMPDEST NOT DUP1 DUP4 AND SWAP2 POP POP SWAP3 SWAP2 POP POP JUMP JUMPDEST PUSH1 0x0 PUSH2 0xB05 DUP4 DUP4 PUSH2 0xADB JUMP JUMPDEST SWAP2 POP DUP3 PUSH1 0x2 MUL DUP3 OR SWAP1 POP SWAP3 SWAP2 POP POP JUMP JUMPDEST PUSH2 0xB1E DUP3 PUSH2 0x711 JUMP JUMPDEST PUSH8 0xFFFFFFFFFFFFFFFF DUP2 GT ISZERO PUSH2 0xB37 JUMPI PUSH2 0xB36 PUSH2 0x4C8 JUMP JUMPDEST JUMPDEST PUSH2 0xB41 DUP3 SLOAD PUSH2 0x938 JUMP JUMPDEST PUSH2 0xB4C DUP3 DUP3 DUP6 PUSH2 0xA88 JUMP JUMPDEST PUSH1 0x0 PUSH1 0x20 SWAP1 POP PUSH1 0x1F DUP4 GT PUSH1 0x1 DUP2 EQ PUSH2 0xB7F JUMPI PUSH1 0x0 DUP5 ISZERO PUSH2 0xB6D JUMPI DUP3 DUP8 ADD MLOAD SWAP1 POP JUMPDEST PUSH2 0xB77 DUP6 DUP3 PUSH2 0xAF9 JUMP JUMPDEST DUP7 SSTORE POP PUSH2 0xBDF JUMP JUMPDEST PUSH1 0x1F NOT DUP5 AND PUSH2 0xB8D DUP7 PUSH2 0x969 JUMP JUMPDEST PUSH1 0x0 JUMPDEST DUP3 DUP2 LT ISZERO PUSH2 0xBB5 JUMPI DUP5 DUP10 ADD MLOAD DUP3 SSTORE PUSH1 0x1 DUP3 ADD SWAP2 POP PUSH1 0x20 DUP6 ADD SWAP5 POP PUSH1 0x20 DUP2 ADD SWAP1 POP PUSH2 0xB90 JUMP JUMPDEST DUP7 DUP4 LT ISZERO PUSH2 0xBD2 JUMPI DUP5 DUP10 ADD MLOAD PUSH2 0xBCE PUSH1 0x1F DUP10 AND DUP3 PUSH2 0xADB JUMP JUMPDEST DUP4 SSTORE POP JUMPDEST PUSH1 0x1 PUSH1 0x2 DUP9 MUL ADD DUP9 SSTORE POP POP POP JUMPDEST POP POP POP POP POP POP JUMP JUMPDEST PUSH32 0x526573756C74206E6F7420666F756E6400000000000000000000000000000000 PUSH1 0x0 DUP3 ADD MSTORE POP JUMP JUMPDEST PUSH1 0x0 PUSH2 0xC1D PUSH1 0x10 DUP4 PUSH2 0x71C JUMP JUMPDEST SWAP2 POP PUSH2 0xC28 DUP3 PUSH2 0xBE7 JUMP JUMPDEST PUSH1 0x20 DUP3 ADD SWAP1 POP SWAP2 SWAP1 POP JUMP JUMPDEST PUSH1 0x0 PUSH1 0x20 DUP3 ADD SWAP1 POP DUP2 DUP2 SUB PUSH1 0x0 DUP4 ADD MSTORE PUSH2 0xC4C DUP2 PUSH2 0xC10 JUMP JUMPDEST SWAP1 POP SWAP2 SWAP1 POP JUMP INVALID LOG2 PUSH5 0x6970667358 0x22 SLT KECCAK256 PUSH18 0x5B3DF060F76571705BC909985C07F392F05E DUP8 LOG3 0xB3 SWAP14 0xC7 0xD7 0xD4 PUSH27 0x70239468FA64736F6C634300081E00330000000000000000000000 "
				},
				"gasEstimates": {
					"creation": {
						"codeDepositCost": "641800",
						"executionCost": "676",
						"totalCost": "642476"
					},
					"external": {
						"addResult(string,uint256,string,uint256)": "infinite",
						"createExam(string,string,uint256)": "infinite",
						"getExam(string)": "infinite",
						"getResult(string,uint256)": "infinite"
					}
				},
				"methodIdentifiers": {
					"addResult(string,uint256,string,uint256)": "03803e41",
					"createExam(string,string,uint256)": "b6540b64",
					"getExam(string)": "61afcc7b",
					"getResult(string,uint256)": "7d60fd39"
				}
			},
			"storageLayout": {
				"storage": [
					{
						"astId": 20,
						"contract": "Exam.sol:MultiExamSystem",
						"label": "exams",
						"offset": 0,
						"slot": "0",
						"type": "t_mapping(t_string_memory_ptr,t_struct(ExamSet)8_storage)"
					},
					{
						"astId": 27,
						"contract": "Exam.sol:MultiExamSystem",
						"label": "results",
						"offset": 0,
						"slot": "1",
						"type": "t_mapping(t_string_memory_ptr,t_mapping(t_uint256,t_struct(StudentResult)15_storage))"
					}
				],
				"types": {
					"t_address": {
						"encoding": "inplace",
						"label": "address",
						"numberOfBytes": "20"
					},
					"t_bool": {
						"encoding": "inplace",
						"label": "bool",
						"numberOfBytes": "1"
					},
					"t_mapping(t_string_memory_ptr,t_mapping(t_uint256,t_struct(StudentResult)15_storage))": {
						"encoding": "mapping",
						"key": "t_string_memory_ptr",
						"label": "mapping(string => mapping(uint256 => struct MultiExamSystem.StudentResult))",
						"numberOfBytes": "32",
						"value": "t_mapping(t_uint256,t_struct(StudentResult)15_storage)"
					},
					"t_mapping(t_string_memory_ptr,t_struct(ExamSet)8_storage)": {
						"encoding": "mapping",
						"key": "t_string_memory_ptr",
						"label": "mapping(string => struct MultiExamSystem.ExamSet)",
						"numberOfBytes": "32",
						"value": "t_struct(ExamSet)8_storage"
					},
					"t_mapping(t_uint256,t_struct(StudentResult)15_storage)": {
						"encoding": "mapping",
						"key": "t_uint256",
						"label": "mapping(uint256 => struct MultiExamSystem.StudentResult)",
						"numberOfBytes": "32",
						"value": "t_struct(StudentResult)15_storage"
					},
					"t_string_memory_ptr": {
						"encoding": "bytes",
						"label": "string",
						"numberOfBytes": "32"
					},
					"t_string_storage": {
						"encoding": "bytes",
						"label": "string",
						"numberOfBytes": "32"
					},
					"t_struct(ExamSet)8_storage": {
						"encoding": "inplace",
						"label": "struct MultiExamSystem.ExamSet",
						"members": [
							{
								"astId": 3,
								"contract": "Exam.sol:MultiExamSystem",
								"label": "questionsJson",
								"offset": 0,
								"slot": "0",
								"type": "t_string_storage"
							},
							{
								"astId": 5,
								"contract": "Exam.sol:MultiExamSystem",
								"label": "duration",
								"offset": 0,
								"slot": "1",
								"type": "t_uint256"
							},
							{
								"astId": 7,
								"contract": "Exam.sol:MultiExamSystem",
								"label": "creator",
								"offset": 0,
								"slot": "2",
								"type": "t_address"
							}
						],
						"numberOfBytes": "96"
					},
					"t_struct(StudentResult)15_storage": {
						"encoding": "inplace",
						"label": "struct MultiExamSystem.StudentResult",
						"members": [
							{
								"astId": 10,
								"contract": "Exam.sol:MultiExamSystem",
								"label": "name",
								"offset": 0,
								"slot": "0",
								"type": "t_string_storage"
							},
							{
								"astId": 12,
								"contract": "Exam.sol:MultiExamSystem",
								"label": "marks",
								"offset": 0,
								"slot": "1",
								"type": "t_uint256"
							},
							{
								"astId": 14,
								"contract": "Exam.sol:MultiExamSystem",
								"label": "exists",
								"offset": 0,
								"slot": "2",
								"type": "t_bool"
							}
						],
						"numberOfBytes": "96"
					},
					"t_uint256": {
						"encoding": "inplace",
						"label": "uint256",
						"numberOfBytes": "32"
					}
				}
			},
			"userdoc": {
				"kind": "user",
				"methods": {},
				"version": 1
			}
		}
	}
}